{
  "_format": "hh-sol-artifact-1",
  "contractName": "Escrow",
  "sourceName": "contracts/Escrow.sol",
  "abi": [
    {
      "inputs": [
        {
          "internalType": "address",
          "name": "_token",
          "type": "address"
        }
      ],
      "stateMutability": "nonpayable",
      "type": "constructor"
    },
    {
      "inputs": [],
      "name": "AdminCannotSubmit",
      "type": "error"
    },
    {
      "inputs": [],
      "name": "AlreadySubmitted",
      "type": "error"
    },
    {
      "inputs": [],
      "name": "ChallengeAlreadyClosed",
      "type": "error"
    },
    {
      "inputs": [],
      "name": "ChallengeAlreadyResolved",
      "type": "error"
    },
    {
      "inputs": [],
      "name": "ChallengeNotActive",
      "type": "error"
    },
    {
      "inputs": [],
      "name": "ChallengeNotClosed",
      "type": "error"
    },
    {
      "inputs": [],
      "name": "ChallengeNotPending",
      "type": "error"
    },
    {
      "inputs": [],
      "name": "ChallengeNotRefunded",
      "type": "error"
    },
    {
      "inputs": [],
      "name": "ChallengeNotValidating",
      "type": "error"
    },
    {
      "inputs": [],
      "name": "ChallengerNotRegistered",
      "type": "error"
    },
    {
      "inputs": [],
      "name": "InsufficientBalance",
      "type": "error"
    },
    {
      "inputs": [],
      "name": "InvalidSubmissionCount",
      "type": "error"
    },
    {
      "inputs": [],
      "name": "OnlyAdmin",
      "type": "error"
    },
    {
      "inputs": [],
      "name": "SubmissionNotFound",
      "type": "error"
    },
    {
      "anonymous": false,
      "inputs": [
        {
          "indexed": false,
          "internalType": "uint256",
          "name": "challengeId",
          "type": "uint256"
        },
        {
          "indexed": false,
          "internalType": "string",
          "name": "metadataURI",
          "type": "string"
        },
        {
          "indexed": false,
          "internalType": "uint256",
          "name": "poolSize",
          "type": "uint256"
        },
        {
          "indexed": false,
          "internalType": "uint256",
          "name": "deadline",
          "type": "uint256"
        }
      ],
      "name": "ChallengeCreated",
      "type": "event"
    },
    {
      "anonymous": false,
      "inputs": [
        {
          "indexed": false,
          "internalType": "uint256",
          "name": "challengeId",
          "type": "uint256"
        },
        {
          "indexed": false,
          "internalType": "uint256[]",
          "name": "awardedSubmissions",
          "type": "uint256[]"
        },
        {
          "indexed": false,
          "internalType": "uint256[]",
          "name": "ineligibleSubmissions",
          "type": "uint256[]"
        }
      ],
      "name": "ChallengeResolved",
      "type": "event"
    },
    {
      "anonymous": false,
      "inputs": [
        {
          "indexed": false,
          "internalType": "address",
          "name": "user",
          "type": "address"
        },
        {
          "indexed": false,
          "internalType": "uint256",
          "name": "amount",
          "type": "uint256"
        }
      ],
      "name": "Claimed",
      "type": "event"
    },
    {
      "anonymous": false,
      "inputs": [
        {
          "indexed": false,
          "internalType": "uint256",
          "name": "challengeId",
          "type": "uint256"
        },
        {
          "indexed": false,
          "internalType": "uint256",
          "name": "submissionId",
          "type": "uint256"
        },
        {
          "indexed": false,
          "internalType": "address",
          "name": "submitter",
          "type": "address"
        }
      ],
      "name": "SubmissionCreated",
      "type": "event"
    },
    {
      "inputs": [
        {
          "internalType": "uint256",
          "name": "challengeId",
          "type": "uint256"
        }
      ],
      "name": "claim",
      "outputs": [],
      "stateMutability": "nonpayable",
      "type": "function"
    },
    {
      "inputs": [
        {
          "internalType": "string",
          "name": "metadataURI",
          "type": "string"
        },
        {
          "internalType": "uint256",
          "name": "poolSize",
          "type": "uint256"
        },
        {
          "internalType": "uint256",
          "name": "deadline",
          "type": "uint256"
        }
      ],
      "name": "createChallenge",
      "outputs": [],
      "stateMutability": "nonpayable",
      "type": "function"
    },
    {
      "inputs": [
        {
          "internalType": "uint256",
          "name": "challengeId",
          "type": "uint256"
        },
        {
          "internalType": "string",
          "name": "contact",
          "type": "string"
        },
        {
          "internalType": "string",
          "name": "submissionURI",
          "type": "string"
        }
      ],
      "name": "createSubmission",
      "outputs": [],
      "stateMutability": "nonpayable",
      "type": "function"
    },
    {
      "inputs": [
        {
          "internalType": "uint256",
          "name": "challengeId",
          "type": "uint256"
        }
      ],
      "name": "getChallenge",
      "outputs": [
        {
          "components": [
            {
              "internalType": "string",
              "name": "metadataUri",
              "type": "string"
            },
            {
              "internalType": "address",
              "name": "admin",
              "type": "address"
            },
            {
              "internalType": "uint256",
              "name": "poolSize",
              "type": "uint256"
            },
            {
              "internalType": "uint256",
              "name": "endsAt",
              "type": "uint256"
            },
            {
              "internalType": "uint256",
              "name": "createdAt",
              "type": "uint256"
            },
            {
              "internalType": "enum IEscrowStructs.ChallengeStatus",
              "name": "status",
              "type": "uint8"
            }
          ],
          "internalType": "struct IEscrowStructs.Challenge",
          "name": "",
          "type": "tuple"
        }
      ],
      "stateMutability": "view",
      "type": "function"
    },
    {
      "inputs": [
        {
          "internalType": "address",
          "name": "challenger",
          "type": "address"
        }
      ],
      "name": "getChallengerChallenges",
      "outputs": [
        {
          "internalType": "uint256[]",
          "name": "",
          "type": "uint256[]"
        }
      ],
      "stateMutability": "view",
      "type": "function"
    },
    {
      "inputs": [],
      "name": "getChallengesCount",
      "outputs": [
        {
          "internalType": "uint256",
          "name": "",
          "type": "uint256"
        }
      ],
      "stateMutability": "view",
      "type": "function"
    },
    {
      "inputs": [
        {
          "internalType": "uint256",
          "name": "challengeId",
          "type": "uint256"
        },
        {
          "internalType": "address",
          "name": "account",
          "type": "address"
        }
      ],
      "name": "getClaimable",
      "outputs": [
        {
          "internalType": "uint256",
          "name": "",
          "type": "uint256"
        }
      ],
      "stateMutability": "view",
      "type": "function"
    },
    {
      "inputs": [
        {
          "internalType": "address",
          "name": "user",
          "type": "address"
        }
      ],
      "name": "getProfile",
      "outputs": [
        {
          "components": [
            {
              "internalType": "string",
              "name": "name",
              "type": "string"
            },
            {
              "internalType": "string",
              "name": "description",
              "type": "string"
            },
            {
              "internalType": "string",
              "name": "website",
              "type": "string"
            },
            {
              "internalType": "string",
              "name": "logoURI",
              "type": "string"
            },
            {
              "internalType": "bool",
              "name": "verified",
              "type": "bool"
            }
          ],
          "internalType": "struct IEscrowStructs.ChallengerProfile",
          "name": "",
          "type": "tuple"
        }
      ],
      "stateMutability": "view",
      "type": "function"
    },
    {
      "inputs": [
        {
          "internalType": "uint256",
          "name": "challengeId",
          "type": "uint256"
        },
        {
          "internalType": "uint256",
          "name": "submissionId",
          "type": "uint256"
        }
      ],
      "name": "getSubmission",
      "outputs": [
        {
          "components": [
            {
              "internalType": "string",
              "name": "metadataUri",
              "type": "string"
            },
            {
              "internalType": "address",
              "name": "creator",
              "type": "address"
            },
            {
              "internalType": "string",
              "name": "creatorContact",
              "type": "string"
            },
            {
              "internalType": "enum IEscrowStructs.SubmissionStatus",
              "name": "status",
              "type": "uint8"
            },
            {
              "internalType": "uint256",
              "name": "createdAt",
              "type": "uint256"
            }
          ],
          "internalType": "struct IEscrowStructs.Submission",
          "name": "",
          "type": "tuple"
        }
      ],
      "stateMutability": "view",
      "type": "function"
    },
    {
      "inputs": [
        {
          "internalType": "uint256",
          "name": "challengeId",
          "type": "uint256"
        }
      ],
      "name": "getSubmissionsCount",
      "outputs": [
        {
          "internalType": "uint256",
          "name": "",
          "type": "uint256"
        }
      ],
      "stateMutability": "view",
      "type": "function"
    },
    {
      "inputs": [
        {
          "internalType": "address",
          "name": "user",
          "type": "address"
        }
      ],
      "name": "getUserSubmissions",
      "outputs": [
        {
          "components": [
            {
              "internalType": "uint256",
              "name": "challengeId",
              "type": "uint256"
            },
            {
              "internalType": "uint256",
              "name": "submissionId",
              "type": "uint256"
            }
          ],
          "internalType": "struct IEscrowStructs.UserSubmission[]",
          "name": "",
          "type": "tuple[]"
        }
      ],
      "stateMutability": "view",
      "type": "function"
    },
    {
      "inputs": [
        {
          "internalType": "uint256",
          "name": "challengeId",
          "type": "uint256"
        },
        {
          "internalType": "uint256[]",
          "name": "awardedSubmissions",
          "type": "uint256[]"
        },
        {
          "internalType": "uint256[]",
          "name": "ineligibleSubmissions",
          "type": "uint256[]"
        }
      ],
      "name": "resolveChallenge",
      "outputs": [],
      "stateMutability": "nonpayable",
      "type": "function"
    },
    {
      "inputs": [
        {
          "internalType": "string",
          "name": "name",
          "type": "string"
        },
        {
          "internalType": "string",
          "name": "description",
          "type": "string"
        },
        {
          "internalType": "string",
          "name": "website",
          "type": "string"
        },
        {
          "internalType": "string",
          "name": "logoURI",
          "type": "string"
        }
      ],
      "name": "setProfile",
      "outputs": [],
      "stateMutability": "nonpayable",
      "type": "function"
    },
    {
      "inputs": [],
      "name": "token",
      "outputs": [
        {
          "internalType": "contract IERC20",
          "name": "",
          "type": "address"
        }
      ],
      "stateMutability": "view",
      "type": "function"
    }
  ],
  "bytecode": "0x608060405234801561001057600080fd5b50604051613360380380613360833981810160405281019061003291906100db565b806000806101000a81548173ffffffffffffffffffffffffffffffffffffffff021916908373ffffffffffffffffffffffffffffffffffffffff16021790555050610108565b600080fd5b600073ffffffffffffffffffffffffffffffffffffffff82169050919050565b60006100a88261007d565b9050919050565b6100b88161009d565b81146100c357600080fd5b50565b6000815190506100d5816100af565b92915050565b6000602082840312156100f1576100f0610078565b5b60006100ff848285016100c6565b91505092915050565b613249806101176000396000f3fe608060405234801561001057600080fd5b50600436106100ea5760003560e01c8063864c238a1161008c578063a7b8614d11610066578063a7b8614d14610259578063b7ed707114610289578063b961cbe1146102b9578063fc0c546a146102e9576100ea565b8063864c238a146101f15780638cec0ba01461022157806392a761a91461023d576100ea565b8063379607f5116100c8578063379607f51461016b57806355509c8f146101875780635c2cc332146101a35780635c422295146101c1576100ea565b80630f53a470146100ef5780631aaaac931461011f5780631bdd4b741461013b575b600080fd5b610109600480360381019061010491906120cd565b610307565b6040516101169190612230565b60405180910390f35b610139600480360381019061013491906122ed565b6105c3565b005b61015560048036038101906101509190612361565b61088a565b60405161016291906124ac565b60405180910390f35b61018560048036038101906101809190612361565b610a70565b005b6101a1600480360381019061019c91906124ce565b610c31565b005b6101ab610e2f565b6040516101b891906125c6565b60405180910390f35b6101db60048036038101906101d69190612361565b610e39565b6040516101e891906125c6565b60405180910390f35b61020b600480360381019061020691906120cd565b610e56565b6040516102189190612690565b60405180910390f35b61023b600480360381019061023691906126b2565b610eed565b005b6102576004803603810190610252919061279d565b611399565b005b610273600480360381019061026e91906120cd565b611c50565b6040516102809190612910565b60405180910390f35b6102a3600480360381019061029e9190612932565b611d02565b6040516102b09190612a37565b60405180910390f35b6102d360048036038101906102ce9190612a59565b611f00565b6040516102e091906125c6565b60405180910390f35b6102f1611f5b565b6040516102fe9190612af8565b60405180910390f35b61030f611f7f565b600b60008373ffffffffffffffffffffffffffffffffffffffff1673ffffffffffffffffffffffffffffffffffffffff1681526020019081526020016000206040518060a001604052908160008201805461036990612b42565b80601f016020809104026020016040519081016040528092919081815260200182805461039590612b42565b80156103e25780601f106103b7576101008083540402835291602001916103e2565b820191906000526020600020905b8154815290600101906020018083116103c557829003601f168201915b505050505081526020016001820180546103fb90612b42565b80601f016020809104026020016040519081016040528092919081815260200182805461042790612b42565b80156104745780601f1061044957610100808354040283529160200191610474565b820191906000526020600020905b81548152906001019060200180831161045757829003601f168201915b5050505050815260200160028201805461048d90612b42565b80601f01602080910402602001604051908101604052809291908181526020018280546104b990612b42565b80156105065780601f106104db57610100808354040283529160200191610506565b820191906000526020600020905b8154815290600101906020018083116104e957829003601f168201915b5050505050815260200160038201805461051f90612b42565b80601f016020809104026020016040519081016040528092919081815260200182805461054b90612b42565b80156105985780601f1061056d57610100808354040283529160200191610598565b820191906000526020600020905b81548152906001019060200180831161057b57829003601f168201915b505050505081526020016004820160009054906101000a900460ff1615151515815250509050919050565b600060015490506040518060c0016040528086868080601f016020809104026020016040519081016040528093929190818152602001838380828437600081840152601f19601f8201169050808301925050505050505081526020013373ffffffffffffffffffffffffffffffffffffffff16815260200184815260200183815260200142815260200160006002811115610661576106606123ac565b5b81525060026000838152602001908152602001600020600082015181600001908161068c9190612d44565b5060208201518160010160006101000a81548173ffffffffffffffffffffffffffffffffffffffff021916908373ffffffffffffffffffffffffffffffffffffffff16021790555060408201518160020155606082015181600301556080820151816004015560a08201518160050160006101000a81548160ff0219169083600281111561071d5761071c6123ac565b5b0217905550905050600360003373ffffffffffffffffffffffffffffffffffffffff1673ffffffffffffffffffffffffffffffffffffffff1681526020019081526020016000208190806001815401808255809150506001900390600052602060002001600090919091909150556001600081548092919061079e90612e45565b919050555060008054906101000a900473ffffffffffffffffffffffffffffffffffffffff1673ffffffffffffffffffffffffffffffffffffffff166323b872dd3330866040518463ffffffff1660e01b815260040161080093929190612e9c565b6020604051808303816000875af115801561081f573d6000803e3d6000fd5b505050506040513d601f19601f820116820180604052508101906108439190612eff565b507f5ada7bcb61317fcef34c60f3ed6612f30405f948126c579af585b4608de59bbe818686868660405161087b959493929190612f79565b60405180910390a15050505050565b610892611fb0565b6000600260008481526020019081526020016000206040518060c00160405290816000820180546108c290612b42565b80601f01602080910402602001604051908101604052809291908181526020018280546108ee90612b42565b801561093b5780601f106109105761010080835404028352916020019161093b565b820191906000526020600020905b81548152906001019060200180831161091e57829003601f168201915b505050505081526020016001820160009054906101000a900473ffffffffffffffffffffffffffffffffffffffff1673ffffffffffffffffffffffffffffffffffffffff1673ffffffffffffffffffffffffffffffffffffffff1681526020016002820154815260200160038201548152602001600482015481526020016005820160009054906101000a900460ff1660028111156109dd576109dc6123ac565b5b60028111156109ef576109ee6123ac565b5b815250509050428160600151108015610a30575060006002811115610a1757610a166123ac565b5b8160a001516002811115610a2e57610a2d6123ac565b5b145b15610a675760018160a001906002811115610a4e57610a4d6123ac565b5b90816002811115610a6257610a616123ac565b5b815250505b80915050919050565b60006009600083815260200190815260200160002060003373ffffffffffffffffffffffffffffffffffffffff1673ffffffffffffffffffffffffffffffffffffffff16815260200190815260200160002054905060008103610aff576040517ff4d678b800000000000000000000000000000000000000000000000000000000815260040160405180910390fd5b60008054906101000a900473ffffffffffffffffffffffffffffffffffffffff1673ffffffffffffffffffffffffffffffffffffffff1663a9059cbb33836040518363ffffffff1660e01b8152600401610b5a929190612fc7565b6020604051808303816000875af1158015610b79573d6000803e3d6000fd5b505050506040513d601f19601f82011682018060405250810190610b9d9190612eff565b5060006009600084815260200190815260200160002060003373ffffffffffffffffffffffffffffffffffffffff1673ffffffffffffffffffffffffffffffffffffffff168152602001908152602001600020819055507fd8138f8a3f377c5259ca548e70e4c2de94f129f5a11036a15b69513cba2b426a3382604051610c25929190612fc7565b60405180910390a15050565b6040518060a0016040528089898080601f016020809104026020016040519081016040528093929190818152602001838380828437600081840152601f19601f82011690508083019250505050505050815260200187878080601f016020809104026020016040519081016040528093929190818152602001838380828437600081840152601f19601f82011690508083019250505050505050815260200185858080601f016020809104026020016040519081016040528093929190818152602001838380828437600081840152601f19601f82011690508083019250505050505050815260200183838080601f016020809104026020016040519081016040528093929190818152602001838380828437600081840152601f19601f82011690508083019250505050505050815260200160001515815250600b60003373ffffffffffffffffffffffffffffffffffffffff1673ffffffffffffffffffffffffffffffffffffffff1681526020019081526020016000206000820151816000019081610dbf9190612d44565b506020820151816001019081610dd59190612d44565b506040820151816002019081610deb9190612d44565b506060820151816003019081610e019190612d44565b5060808201518160040160006101000a81548160ff0219169083151502179055509050505050505050505050565b6000600154905090565b600060046000838152602001908152602001600020549050919050565b6060600360008373ffffffffffffffffffffffffffffffffffffffff1673ffffffffffffffffffffffffffffffffffffffff168152602001908152602001600020805480602002602001604051908101604052809291908181526020018280548015610ee157602002820191906000526020600020905b815481526020019060010190808311610ecd575b50505050509050919050565b6008600086815260200190815260200160002060003373ffffffffffffffffffffffffffffffffffffffff1673ffffffffffffffffffffffffffffffffffffffff16815260200190815260200160002060009054906101000a900460ff1615610f82576040517f9fbfc58900000000000000000000000000000000000000000000000000000000815260040160405180910390fd5b4260026000878152602001908152602001600020600301541015610fd2576040517fbeb11d3b00000000000000000000000000000000000000000000000000000000815260040160405180910390fd5b3373ffffffffffffffffffffffffffffffffffffffff166002600087815260200190815260200160002060010160009054906101000a900473ffffffffffffffffffffffffffffffffffffffff1673ffffffffffffffffffffffffffffffffffffffff160361106d576040517fb98bbc6000000000000000000000000000000000000000000000000000000000815260040160405180910390fd5b6000600460008781526020019081526020016000205490506040518060a0016040528084848080601f016020809104026020016040519081016040528093929190818152602001838380828437600081840152601f19601f8201169050808301925050505050505081526020013373ffffffffffffffffffffffffffffffffffffffff16815260200186868080601f016020809104026020016040519081016040528093929190818152602001838380828437600081840152601f19601f82011690508083019250505050505050815260200160006003811115611154576111536123ac565b5b81526020014281525060056000888152602001908152602001600020600083815260200190815260200160002060008201518160000190816111969190612d44565b5060208201518160010160006101000a81548173ffffffffffffffffffffffffffffffffffffffff021916908373ffffffffffffffffffffffffffffffffffffffff16021790555060408201518160020190816111f39190612d44565b5060608201518160030160006101000a81548160ff0219169083600381111561121f5761121e6123ac565b5b02179055506080820151816004015590505060046000878152602001908152602001600020600081548092919061125590612e45565b919050555060016008600088815260200190815260200160002060003373ffffffffffffffffffffffffffffffffffffffff1673ffffffffffffffffffffffffffffffffffffffff16815260200190815260200160002060006101000a81548160ff021916908315150217905550600a60003373ffffffffffffffffffffffffffffffffffffffff1673ffffffffffffffffffffffffffffffffffffffff1681526020019081526020016000206040518060400160405280888152602001838152509080600181540180825580915050600190039060005260206000209060020201600090919091909150600082015181600001556020820151816001015550507fb278a68dfafcc5cc9a48159e0a7ca53d17d27a71d312bbbc962e8d79dcd34cfb81873360405161138993929190612ff0565b60405180910390a1505050505050565b843373ffffffffffffffffffffffffffffffffffffffff166002600083815260200190815260200160002060010160009054906101000a900473ffffffffffffffffffffffffffffffffffffffff1673ffffffffffffffffffffffffffffffffffffffff1614611435576040517f4755657900000000000000000000000000000000000000000000000000000000815260040160405180910390fd5b4260026000888152602001908152602001600020600301541115611485576040517fc390fa0400000000000000000000000000000000000000000000000000000000815260040160405180910390fd5b600280811115611498576114976123ac565b5b6002600088815260200190815260200160002060050160009054906101000a900460ff1660028111156114ce576114cd6123ac565b5b03611505576040517f2d921dad00000000000000000000000000000000000000000000000000000000815260040160405180910390fd5b6004600087815260200190815260200160002054838390508686905061152b9190613027565b1115611563576040517fd3c4328600000000000000000000000000000000000000000000000000000000815260040160405180910390fd5b600280600088815260200190815260200160002060050160006101000a81548160ff0219169083600281111561159c5761159b6123ac565b5b02179055506000806000600460008a815260200190815260200160002054905060008114806115cd57508585905081145b156116c55760008054906101000a900473ffffffffffffffffffffffffffffffffffffffff1673ffffffffffffffffffffffffffffffffffffffff1663a9059cbb600260008c815260200190815260200160002060010160009054906101000a900473ffffffffffffffffffffffffffffffffffffffff16600260008d8152602001908152602001600020600201546040518363ffffffff1660e01b8152600401611679929190612fc7565b6020604051808303816000875af1158015611698573d6000803e3d6000fd5b505050506040513d601f19601f820116820180604052508101906116bc9190612eff565b50505050611c48565b8787905086869050826116d8919061305b565b0361170d5787879050600260008b81526020019081526020016000206002015461170291906130be565b9250600091506117a5565b8787905060646046600260008d81526020019081526020016000206002015461173691906130ef565b61174091906130be565b61174a91906130be565b925087879050868690508261175f919061305b565b611769919061305b565b6064601e600260008d81526020019081526020016000206002015461178e91906130ef565b61179891906130be565b6117a291906130be565b91505b60005b88889050811015611816576001600660008c815260200190815260200160002060008b8b858181106117dd576117dc613131565b5b90506020020135815260200190815260200160002060006101000a81548160ff02191690831515021790555080806001019150506117a8565b5060005b86869050811015611888576001600760008c8152602001908152602001600020600089898581811061184f5761184e613131565b5b90506020020135815260200190815260200160002060006101000a81548160ff021916908315150217905550808060010191505061181a565b5060005b81811015611c0457600660008b8152602001908152602001600020600082815260200190815260200160002060009054906101000a900460ff16156119ce576003600560008c8152602001908152602001600020600083815260200190815260200160002060030160006101000a81548160ff02191690836003811115611916576119156123ac565b5b021790555083600960008c81526020019081526020016000206000600560008e8152602001908152602001600020600085815260200190815260200160002060010160009054906101000a900473ffffffffffffffffffffffffffffffffffffffff1673ffffffffffffffffffffffffffffffffffffffff1673ffffffffffffffffffffffffffffffffffffffff16815260200190815260200160002060008282546119c29190613027565b92505081905550611bf7565b600760008b8152602001908152602001600020600082815260200190815260200160002060009054906101000a900460ff1615611af7576001600560008c8152602001908152602001600020600083815260200190815260200160002060030160006101000a81548160ff02191690836003811115611a5057611a4f6123ac565b5b02179055506000600960008c81526020019081526020016000206000600560008e8152602001908152602001600020600085815260200190815260200160002060010160009054906101000a900473ffffffffffffffffffffffffffffffffffffffff1673ffffffffffffffffffffffffffffffffffffffff1673ffffffffffffffffffffffffffffffffffffffff16815260200190815260200160002081905550611bf6565b6002600560008c8152602001908152602001600020600083815260200190815260200160002060030160006101000a81548160ff02191690836003811115611b4257611b416123ac565b5b021790555082600960008c81526020019081526020016000206000600560008e8152602001908152602001600020600085815260200190815260200160002060010160009054906101000a900473ffffffffffffffffffffffffffffffffffffffff1673ffffffffffffffffffffffffffffffffffffffff1673ffffffffffffffffffffffffffffffffffffffff1681526020019081526020016000206000828254611bee9190613027565b925050819055505b5b808060010191505061188c565b507f2ae9cf9c1491e6f83533986d7898aeaa71b08af5c10eaddab515d50223bb905a8989898989604051611c3c9594939291906131ca565b60405180910390a15050505b505050505050565b6060600a60008373ffffffffffffffffffffffffffffffffffffffff1673ffffffffffffffffffffffffffffffffffffffff168152602001908152602001600020805480602002602001604051908101604052809291908181526020016000905b82821015611cf757838290600052602060002090600202016040518060400160405290816000820154815260200160018201548152505081526020019060010190611cb1565b505050509050919050565b611d0a61200e565b6005600084815260200190815260200160002060008381526020019081526020016000206040518060a0016040529081600082018054611d4990612b42565b80601f0160208091040260200160405190810160405280929190818152602001828054611d7590612b42565b8015611dc25780601f10611d9757610100808354040283529160200191611dc2565b820191906000526020600020905b815481529060010190602001808311611da557829003601f168201915b505050505081526020016001820160009054906101000a900473ffffffffffffffffffffffffffffffffffffffff1673ffffffffffffffffffffffffffffffffffffffff1673ffffffffffffffffffffffffffffffffffffffff168152602001600282018054611e3190612b42565b80601f0160208091040260200160405190810160405280929190818152602001828054611e5d90612b42565b8015611eaa5780601f10611e7f57610100808354040283529160200191611eaa565b820191906000526020600020905b815481529060010190602001808311611e8d57829003601f168201915b505050505081526020016003820160009054906101000a900460ff166003811115611ed857611ed76123ac565b5b6003811115611eea57611ee96123ac565b5b8152602001600482015481525050905092915050565b60006009600084815260200190815260200160002060008373ffffffffffffffffffffffffffffffffffffffff1673ffffffffffffffffffffffffffffffffffffffff16815260200190815260200160002054905092915050565b60008054906101000a900473ffffffffffffffffffffffffffffffffffffffff1681565b6040518060a00160405280606081526020016060815260200160608152602001606081526020016000151581525090565b6040518060c0016040528060608152602001600073ffffffffffffffffffffffffffffffffffffffff16815260200160008152602001600081526020016000815260200160006002811115612008576120076123ac565b5b81525090565b6040518060a0016040528060608152602001600073ffffffffffffffffffffffffffffffffffffffff1681526020016060815260200160006003811115612058576120576123ac565b5b8152602001600081525090565b600080fd5b600080fd5b600073ffffffffffffffffffffffffffffffffffffffff82169050919050565b600061209a8261206f565b9050919050565b6120aa8161208f565b81146120b557600080fd5b50565b6000813590506120c7816120a1565b92915050565b6000602082840312156120e3576120e2612065565b5b60006120f1848285016120b8565b91505092915050565b600081519050919050565b600082825260208201905092915050565b60005b83811015612134578082015181840152602081019050612119565b60008484015250505050565b6000601f19601f8301169050919050565b600061215c826120fa565b6121668185612105565b9350612176818560208601612116565b61217f81612140565b840191505092915050565b60008115159050919050565b61219f8161218a565b82525050565b600060a08301600083015184820360008601526121c28282612151565b915050602083015184820360208601526121dc8282612151565b915050604083015184820360408601526121f68282612151565b915050606083015184820360608601526122108282612151565b91505060808301516122256080860182612196565b508091505092915050565b6000602082019050818103600083015261224a81846121a5565b905092915050565b600080fd5b600080fd5b600080fd5b60008083601f84011261227757612276612252565b5b8235905067ffffffffffffffff81111561229457612293612257565b5b6020830191508360018202830111156122b0576122af61225c565b5b9250929050565b6000819050919050565b6122ca816122b7565b81146122d557600080fd5b50565b6000813590506122e7816122c1565b92915050565b6000806000806060858703121561230757612306612065565b5b600085013567ffffffffffffffff8111156123255761232461206a565b5b61233187828801612261565b94509450506020612344878288016122d8565b9250506040612355878288016122d8565b91505092959194509250565b60006020828403121561237757612376612065565b5b6000612385848285016122d8565b91505092915050565b6123978161208f565b82525050565b6123a6816122b7565b82525050565b7f4e487b7100000000000000000000000000000000000000000000000000000000600052602160045260246000fd5b600381106123ec576123eb6123ac565b5b50565b60008190506123fd826123db565b919050565b600061240d826123ef565b9050919050565b61241d81612402565b82525050565b600060c08301600083015184820360008601526124408282612151565b9150506020830151612455602086018261238e565b506040830151612468604086018261239d565b50606083015161247b606086018261239d565b50608083015161248e608086018261239d565b5060a08301516124a160a0860182612414565b508091505092915050565b600060208201905081810360008301526124c68184612423565b905092915050565b6000806000806000806000806080898b0312156124ee576124ed612065565b5b600089013567ffffffffffffffff81111561250c5761250b61206a565b5b6125188b828c01612261565b9850985050602089013567ffffffffffffffff81111561253b5761253a61206a565b5b6125478b828c01612261565b9650965050604089013567ffffffffffffffff81111561256a5761256961206a565b5b6125768b828c01612261565b9450945050606089013567ffffffffffffffff8111156125995761259861206a565b5b6125a58b828c01612261565b92509250509295985092959890939650565b6125c0816122b7565b82525050565b60006020820190506125db60008301846125b7565b92915050565b600081519050919050565b600082825260208201905092915050565b6000819050602082019050919050565b6000612619838361239d565b60208301905092915050565b6000602082019050919050565b600061263d826125e1565b61264781856125ec565b9350612652836125fd565b8060005b8381101561268357815161266a888261260d565b975061267583612625565b925050600181019050612656565b5085935050505092915050565b600060208201905081810360008301526126aa8184612632565b905092915050565b6000806000806000606086880312156126ce576126cd612065565b5b60006126dc888289016122d8565b955050602086013567ffffffffffffffff8111156126fd576126fc61206a565b5b61270988828901612261565b9450945050604086013567ffffffffffffffff81111561272c5761272b61206a565b5b61273888828901612261565b92509250509295509295909350565b60008083601f84011261275d5761275c612252565b5b8235905067ffffffffffffffff81111561277a57612779612257565b5b6020830191508360208202830111156127965761279561225c565b5b9250929050565b6000806000806000606086880312156127b9576127b8612065565b5b60006127c7888289016122d8565b955050602086013567ffffffffffffffff8111156127e8576127e761206a565b5b6127f488828901612747565b9450945050604086013567ffffffffffffffff8111156128175761281661206a565b5b61282388828901612747565b92509250509295509295909350565b600081519050919050565b600082825260208201905092915050565b6000819050602082019050919050565b604082016000820151612874600085018261239d565b506020820151612887602085018261239d565b50505050565b6000612899838361285e565b60408301905092915050565b6000602082019050919050565b60006128bd82612832565b6128c7818561283d565b93506128d28361284e565b8060005b838110156129035781516128ea888261288d565b97506128f5836128a5565b9250506001810190506128d6565b5085935050505092915050565b6000602082019050818103600083015261292a81846128b2565b905092915050565b6000806040838503121561294957612948612065565b5b6000612957858286016122d8565b9250506020612968858286016122d8565b9150509250929050565b60048110612983576129826123ac565b5b50565b600081905061299482612972565b919050565b60006129a482612986565b9050919050565b6129b481612999565b82525050565b600060a08301600083015184820360008601526129d78282612151565b91505060208301516129ec602086018261238e565b5060408301518482036040860152612a048282612151565b9150506060830151612a1960608601826129ab565b506080830151612a2c608086018261239d565b508091505092915050565b60006020820190508181036000830152612a5181846129ba565b905092915050565b60008060408385031215612a7057612a6f612065565b5b6000612a7e858286016122d8565b9250506020612a8f858286016120b8565b9150509250929050565b6000819050919050565b6000612abe612ab9612ab48461206f565b612a99565b61206f565b9050919050565b6000612ad082612aa3565b9050919050565b6000612ae282612ac5565b9050919050565b612af281612ad7565b82525050565b6000602082019050612b0d6000830184612ae9565b92915050565b7f4e487b7100000000000000000000000000000000000000000000000000000000600052602260045260246000fd5b60006002820490506001821680612b5a57607f821691505b602082108103612b6d57612b6c612b13565b5b50919050565b7f4e487b7100000000000000000000000000000000000000000000000000000000600052604160045260246000fd5b60008190508160005260206000209050919050565b60006020601f8301049050919050565b600082821b905092915050565b600060088302612c047fffffffffffffffffffffffffffffffffffffffffffffffffffffffffffffffff82612bc7565b612c0e8683612bc7565b95508019841693508086168417925050509392505050565b6000612c41612c3c612c37846122b7565b612a99565b6122b7565b9050919050565b6000819050919050565b612c5b83612c26565b612c6f612c6782612c48565b848454612bd4565b825550505050565b600090565b612c84612c77565b612c8f818484612c52565b505050565b5b81811015612cb357612ca8600082612c7c565b600181019050612c95565b5050565b601f821115612cf857612cc981612ba2565b612cd284612bb7565b81016020851015612ce1578190505b612cf5612ced85612bb7565b830182612c94565b50505b505050565b600082821c905092915050565b6000612d1b60001984600802612cfd565b1980831691505092915050565b6000612d348383612d0a565b9150826002028217905092915050565b612d4d826120fa565b67ffffffffffffffff811115612d6657612d65612b73565b5b612d708254612b42565b612d7b828285612cb7565b600060209050601f831160018114612dae5760008415612d9c578287015190505b612da68582612d28565b865550612e0e565b601f198416612dbc86612ba2565b60005b82811015612de457848901518255600182019150602085019450602081019050612dbf565b86831015612e015784890151612dfd601f891682612d0a565b8355505b6001600288020188555050505b505050505050565b7f4e487b7100000000000000000000000000000000000000000000000000000000600052601160045260246000fd5b6000612e50826122b7565b91507fffffffffffffffffffffffffffffffffffffffffffffffffffffffffffffffff8203612e8257612e81612e16565b5b600182019050919050565b612e968161208f565b82525050565b6000606082019050612eb16000830186612e8d565b612ebe6020830185612e8d565b612ecb60408301846125b7565b949350505050565b612edc8161218a565b8114612ee757600080fd5b50565b600081519050612ef981612ed3565b92915050565b600060208284031215612f1557612f14612065565b5b6000612f2384828501612eea565b91505092915050565b600082825260208201905092915050565b82818337600083830152505050565b6000612f588385612f2c565b9350612f65838584612f3d565b612f6e83612140565b840190509392505050565b6000608082019050612f8e60008301886125b7565b8181036020830152612fa1818688612f4c565b9050612fb060408301856125b7565b612fbd60608301846125b7565b9695505050505050565b6000604082019050612fdc6000830185612e8d565b612fe960208301846125b7565b9392505050565b600060608201905061300560008301866125b7565b61301260208301856125b7565b61301f6040830184612e8d565b949350505050565b6000613032826122b7565b915061303d836122b7565b925082820190508082111561305557613054612e16565b5b92915050565b6000613066826122b7565b9150613071836122b7565b925082820390508181111561308957613088612e16565b5b92915050565b7f4e487b7100000000000000000000000000000000000000000000000000000000600052601260045260246000fd5b60006130c9826122b7565b91506130d4836122b7565b9250826130e4576130e361308f565b5b828204905092915050565b60006130fa826122b7565b9150613105836122b7565b9250828202613113816122b7565b9150828204841483151761312a57613129612e16565b5b5092915050565b7f4e487b7100000000000000000000000000000000000000000000000000000000600052603260045260246000fd5b600080fd5b82818337505050565b600061317a83856125ec565b93507f07ffffffffffffffffffffffffffffffffffffffffffffffffffffffffffffff8311156131ad576131ac613160565b5b6020830292506131be838584613165565b82840190509392505050565b60006060820190506131df60008301886125b7565b81810360208301526131f281868861316e565b9050818103604083015261320781848661316e565b9050969550505050505056fea2646970667358221220f6801f523b1021a096aaefae44053bc4453aff44befd8f1e592d73a2022bf43564736f6c634300081c0033",
  "linkReferences": {},
  "deployedLinkReferences": {}
}