{
  "_format": "hh3-artifact-1",
  "contractName": "Escrow",
  "sourceName": "contracts/Escrow.sol",
  "abi": [
    {
      "inputs": [
        {
          "internalType": "address",
          "name": "_token",
          "type": "address"
        }
      ],
      "stateMutability": "nonpayable",
      "type": "constructor"
    },
    {
      "inputs": [],
      "name": "AlreadySubmitted",
      "type": "error"
    },
    {
      "inputs": [],
      "name": "ChallengeAlreadyClosed",
      "type": "error"
    },
    {
      "inputs": [],
      "name": "ChallengeNotClosed",
      "type": "error"
    },
    {
      "inputs": [],
      "name": "ChallengeNotPending",
      "type": "error"
    },
    {
      "inputs": [],
      "name": "ChallengeNotRefunded",
      "type": "error"
    },
    {
      "inputs": [],
      "name": "ChallengeNotValidating",
      "type": "error"
    },
    {
      "inputs": [],
      "name": "InsufficientBalance",
      "type": "error"
    },
    {
      "inputs": [],
      "name": "OnlyAdmin",
      "type": "error"
    },
    {
      "anonymous": false,
      "inputs": [
        {
          "indexed": false,
          "internalType": "uint256",
          "name": "challengeId",
          "type": "uint256"
        },
        {
          "indexed": false,
          "internalType": "string",
          "name": "metadataURI",
          "type": "string"
        },
        {
          "indexed": false,
          "internalType": "uint256",
          "name": "poolSize",
          "type": "uint256"
        },
        {
          "indexed": false,
          "internalType": "uint256",
          "name": "deadline",
          "type": "uint256"
        }
      ],
      "name": "ChallengeCreated",
      "type": "event"
    },
    {
      "anonymous": false,
      "inputs": [
        {
          "indexed": false,
          "internalType": "uint256",
          "name": "challengeId",
          "type": "uint256"
        },
        {
          "indexed": false,
          "internalType": "address",
          "name": "user",
          "type": "address"
        },
        {
          "indexed": false,
          "internalType": "uint256",
          "name": "amount",
          "type": "uint256"
        }
      ],
      "name": "ChallengeFundsWithdrawn",
      "type": "event"
    },
    {
      "anonymous": false,
      "inputs": [
        {
          "indexed": false,
          "internalType": "uint256",
          "name": "challengeId",
          "type": "uint256"
        },
        {
          "indexed": false,
          "internalType": "address[]",
          "name": "winners",
          "type": "address[]"
        }
      ],
      "name": "ChallengeResolved",
      "type": "event"
    },
    {
      "anonymous": false,
      "inputs": [
        {
          "indexed": false,
          "internalType": "address",
          "name": "from",
          "type": "address"
        },
        {
          "indexed": false,
          "internalType": "address",
          "name": "to",
          "type": "address"
        },
        {
          "indexed": false,
          "internalType": "uint256",
          "name": "amount",
          "type": "uint256"
        }
      ],
      "name": "FundsWithdrawn",
      "type": "event"
    },
    {
      "anonymous": false,
      "inputs": [
        {
          "indexed": false,
          "internalType": "uint256",
          "name": "challengeId",
          "type": "uint256"
        },
        {
          "indexed": false,
          "internalType": "uint256",
          "name": "submissionId",
          "type": "uint256"
        },
        {
          "indexed": false,
          "internalType": "address",
          "name": "submitter",
          "type": "address"
        }
      ],
      "name": "SubmissionCreated",
      "type": "event"
    },
    {
      "inputs": [
        {
          "internalType": "address",
          "name": "",
          "type": "address"
        },
        {
          "internalType": "uint256",
          "name": "",
          "type": "uint256"
        }
      ],
      "name": "adminChallenges",
      "outputs": [
        {
          "internalType": "uint256",
          "name": "",
          "type": "uint256"
        }
      ],
      "stateMutability": "view",
      "type": "function"
    },
    {
      "inputs": [
        {
          "internalType": "address",
          "name": "",
          "type": "address"
        }
      ],
      "name": "balances",
      "outputs": [
        {
          "internalType": "uint256",
          "name": "",
          "type": "uint256"
        }
      ],
      "stateMutability": "view",
      "type": "function"
    },
    {
      "inputs": [
        {
          "internalType": "uint256",
          "name": "",
          "type": "uint256"
        }
      ],
      "name": "challenges",
      "outputs": [
        {
          "internalType": "string",
          "name": "uri",
          "type": "string"
        },
        {
          "internalType": "address",
          "name": "admin",
          "type": "address"
        },
        {
          "internalType": "uint256",
          "name": "poolSize",
          "type": "uint256"
        },
        {
          "internalType": "uint256",
          "name": "endsAt",
          "type": "uint256"
        },
        {
          "internalType": "uint256",
          "name": "createdAt",
          "type": "uint256"
        }
      ],
      "stateMutability": "view",
      "type": "function"
    },
    {
      "inputs": [],
      "name": "challengesCount",
      "outputs": [
        {
          "internalType": "uint256",
          "name": "",
          "type": "uint256"
        }
      ],
      "stateMutability": "view",
      "type": "function"
    },
    {
      "inputs": [
        {
          "internalType": "string",
          "name": "metadataURI",
          "type": "string"
        },
        {
          "internalType": "uint256",
          "name": "poolSize",
          "type": "uint256"
        },
        {
          "internalType": "uint256",
          "name": "deadline",
          "type": "uint256"
        }
      ],
      "name": "createChallenge",
      "outputs": [],
      "stateMutability": "nonpayable",
      "type": "function"
    },
    {
      "inputs": [
        {
          "internalType": "uint256",
          "name": "challengeId",
          "type": "uint256"
        },
        {
          "internalType": "string",
          "name": "contact",
          "type": "string"
        },
        {
          "internalType": "string",
          "name": "submissionURI",
          "type": "string"
        }
      ],
      "name": "createSubmission",
      "outputs": [],
      "stateMutability": "nonpayable",
      "type": "function"
    },
    {
      "inputs": [
        {
          "internalType": "address",
          "name": "admin",
          "type": "address"
        }
      ],
      "name": "getAdminChallenges",
      "outputs": [
        {
          "internalType": "uint256[]",
          "name": "",
          "type": "uint256[]"
        }
      ],
      "stateMutability": "view",
      "type": "function"
    },
    {
      "inputs": [
        {
          "internalType": "address",
          "name": "account",
          "type": "address"
        }
      ],
      "name": "getBalance",
      "outputs": [
        {
          "internalType": "uint256",
          "name": "",
          "type": "uint256"
        }
      ],
      "stateMutability": "view",
      "type": "function"
    },
    {
      "inputs": [
        {
          "internalType": "uint256",
          "name": "challengeId",
          "type": "uint256"
        }
      ],
      "name": "getChallenge",
      "outputs": [
        {
          "components": [
            {
              "internalType": "string",
              "name": "uri",
              "type": "string"
            },
            {
              "internalType": "address",
              "name": "admin",
              "type": "address"
            },
            {
              "internalType": "uint256",
              "name": "poolSize",
              "type": "uint256"
            },
            {
              "internalType": "uint256",
              "name": "endsAt",
              "type": "uint256"
            },
            {
              "internalType": "uint256",
              "name": "createdAt",
              "type": "uint256"
            }
          ],
          "internalType": "struct IEscrowStructs.Challenge",
          "name": "",
          "type": "tuple"
        }
      ],
      "stateMutability": "view",
      "type": "function"
    },
    {
      "inputs": [
        {
          "internalType": "uint256",
          "name": "startIndex",
          "type": "uint256"
        },
        {
          "internalType": "uint256",
          "name": "count",
          "type": "uint256"
        }
      ],
      "name": "getChallenges",
      "outputs": [
        {
          "components": [
            {
              "internalType": "string",
              "name": "uri",
              "type": "string"
            },
            {
              "internalType": "address",
              "name": "admin",
              "type": "address"
            },
            {
              "internalType": "uint256",
              "name": "poolSize",
              "type": "uint256"
            },
            {
              "internalType": "uint256",
              "name": "endsAt",
              "type": "uint256"
            },
            {
              "internalType": "uint256",
              "name": "createdAt",
              "type": "uint256"
            }
          ],
          "internalType": "struct IEscrowStructs.Challenge[]",
          "name": "",
          "type": "tuple[]"
        }
      ],
      "stateMutability": "view",
      "type": "function"
    },
    {
      "inputs": [],
      "name": "getChallengesCount",
      "outputs": [
        {
          "internalType": "uint256",
          "name": "",
          "type": "uint256"
        }
      ],
      "stateMutability": "view",
      "type": "function"
    },
    {
      "inputs": [
        {
          "internalType": "uint256",
          "name": "challengeId",
          "type": "uint256"
        },
        {
          "internalType": "uint256",
          "name": "submissionId",
          "type": "uint256"
        }
      ],
      "name": "getSubmission",
      "outputs": [
        {
          "components": [
            {
              "internalType": "string",
              "name": "uri",
              "type": "string"
            },
            {
              "internalType": "string",
              "name": "contact",
              "type": "string"
            },
            {
              "internalType": "address",
              "name": "submitter",
              "type": "address"
            },
            {
              "internalType": "uint256",
              "name": "createdAt",
              "type": "uint256"
            }
          ],
          "internalType": "struct IEscrowStructs.Submission",
          "name": "",
          "type": "tuple"
        }
      ],
      "stateMutability": "view",
      "type": "function"
    },
    {
      "inputs": [
        {
          "internalType": "uint256",
          "name": "challengeId",
          "type": "uint256"
        },
        {
          "internalType": "uint256",
          "name": "startIndex",
          "type": "uint256"
        },
        {
          "internalType": "uint256",
          "name": "count",
          "type": "uint256"
        }
      ],
      "name": "getSubmissions",
      "outputs": [
        {
          "components": [
            {
              "internalType": "string",
              "name": "uri",
              "type": "string"
            },
            {
              "internalType": "string",
              "name": "contact",
              "type": "string"
            },
            {
              "internalType": "address",
              "name": "submitter",
              "type": "address"
            },
            {
              "internalType": "uint256",
              "name": "createdAt",
              "type": "uint256"
            }
          ],
          "internalType": "struct IEscrowStructs.Submission[]",
          "name": "",
          "type": "tuple[]"
        }
      ],
      "stateMutability": "view",
      "type": "function"
    },
    {
      "inputs": [
        {
          "internalType": "uint256",
          "name": "challengeId",
          "type": "uint256"
        }
      ],
      "name": "getSubmissionsCount",
      "outputs": [
        {
          "internalType": "uint256",
          "name": "",
          "type": "uint256"
        }
      ],
      "stateMutability": "view",
      "type": "function"
    },
    {
      "inputs": [
        {
          "internalType": "uint256",
          "name": "challengeId",
          "type": "uint256"
        },
        {
          "internalType": "address[]",
          "name": "winners",
          "type": "address[]"
        },
        {
          "internalType": "uint256[]",
          "name": "invalidSubmissions",
          "type": "uint256[]"
        }
      ],
      "name": "resolveChallenge",
      "outputs": [],
      "stateMutability": "nonpayable",
      "type": "function"
    },
    {
      "inputs": [
        {
          "internalType": "uint256",
          "name": "",
          "type": "uint256"
        },
        {
          "internalType": "uint256",
          "name": "",
          "type": "uint256"
        }
      ],
      "name": "submissions",
      "outputs": [
        {
          "internalType": "string",
          "name": "uri",
          "type": "string"
        },
        {
          "internalType": "string",
          "name": "contact",
          "type": "string"
        },
        {
          "internalType": "address",
          "name": "submitter",
          "type": "address"
        },
        {
          "internalType": "uint256",
          "name": "createdAt",
          "type": "uint256"
        }
      ],
      "stateMutability": "view",
      "type": "function"
    },
    {
      "inputs": [
        {
          "internalType": "uint256",
          "name": "",
          "type": "uint256"
        }
      ],
      "name": "submissionsCount",
      "outputs": [
        {
          "internalType": "uint256",
          "name": "",
          "type": "uint256"
        }
      ],
      "stateMutability": "view",
      "type": "function"
    },
    {
      "inputs": [
        {
          "internalType": "uint256",
          "name": "",
          "type": "uint256"
        },
        {
          "internalType": "address",
          "name": "",
          "type": "address"
        }
      ],
      "name": "submitted",
      "outputs": [
        {
          "internalType": "bool",
          "name": "",
          "type": "bool"
        }
      ],
      "stateMutability": "view",
      "type": "function"
    },
    {
      "inputs": [],
      "name": "token",
      "outputs": [
        {
          "internalType": "contract IERC20",
          "name": "",
          "type": "address"
        }
      ],
      "stateMutability": "view",
      "type": "function"
    },
    {
      "inputs": [
        {
          "internalType": "uint256",
          "name": "amount",
          "type": "uint256"
        },
        {
          "internalType": "address",
          "name": "to",
          "type": "address"
        }
      ],
      "name": "withdraw",
      "outputs": [],
      "stateMutability": "nonpayable",
      "type": "function"
    }
  ],
  "bytecode": "0x6080604052348015600e575f5ffd5b50604051611d62380380611d62833981016040819052602b91604e565b5f80546001600160a01b0319166001600160a01b03929092169190911790556079565b5f60208284031215605d575f5ffd5b81516001600160a01b03811681146072575f5ffd5b9392505050565b611cdc806100865f395ff3fe608060405234801561000f575f5ffd5b5060043610610126575f3560e01c80636e7c6e05116100a9578063bcca8d971161006e578063bcca8d97146102d4578063de9acca7146102f4578063e5b281fe14610314578063f8b2cb4f14610334578063fc0c546a1461035c575f5ffd5b80636e7c6e051461024b5780638cec0ba01461025e5780638f1d377614610271578063b3f7c3aa14610295578063b7ed7071146102b4575f5ffd5b806344dea671116100ef57806344dea671146101bb5780635c2cc332146101c45780635c422295146101cc5780636599b25b146101eb57806369c1fc2514610228575f5ffd5b8062f714ce1461012a5780631aaaac931461013f5780631bdd4b74146101525780631e89a5391461017b57806327e235e31461019c575b5f5ffd5b61013d610138366004611507565b610386565b005b61013d61014d366004611576565b610499565b6101656101603660046115c3565b6105bf565b6040516101729190611658565b60405180910390f35b61018e610189366004611671565b6106d5565b604051908152602001610172565b61018e6101aa366004611699565b60046020525f908152604090205481565b61018e60015481565b60015461018e565b61018e6101da3660046115c3565b5f9081526005602052604090205490565b6102186101f9366004611507565b600760209081525f928352604080842090915290825290205460ff1681565b6040519015158152602001610172565b61023b6102363660046116b2565b610700565b60405161017294939291906116d2565b61013d610259366004611754565b610848565b61013d61026c3660046117cd565b610c47565b61028461027f3660046115c3565b610e0b565b604051610172959493929190611835565b61018e6102a33660046115c3565b60056020525f908152604090205481565b6102c76102c23660046116b2565b610ec9565b60405161017291906118ca565b6102e76102e23660046116b2565b611064565b60405161017291906118dc565b610307610302366004611699565b61122a565b604051610172919061193f565b610327610322366004611981565b611293565b60405161017291906119aa565b61018e610342366004611699565b6001600160a01b03165f9081526004602052604090205490565b5f5461036e906001600160a01b031681565b6040516001600160a01b039091168152602001610172565b335f908152600460205260409020548211156103b557604051631e9acf1760e31b815260040160405180910390fd5b5f5460405163a9059cbb60e01b81526001600160a01b038381166004830152602482018590529091169063a9059cbb906044016020604051808303815f875af1158015610404573d5f5f3e3d5ffd5b505050506040513d601f19601f820116820180604052508101906104289190611a01565b50335f9081526004602052604081208054849290610447908490611a34565b9091555050604080513381526001600160a01b03831660208201529081018390527fa92ff919b850e4909ab2261d907ef955f11bc1716733a6cbece38d163a69af8a9060600160405180910390a15050565b6040518060a0016040528085858080601f0160208091040260200160405190810160405280939291908181526020018383808284375f920182905250938552505033602080850191909152604080850188905260608501879052426080909501949094526001548352600290525020815181906105169082611adf565b506020820151816001015f6101000a8154816001600160a01b0302191690836001600160a01b031602179055506040820151816002015560608201518160030155608082015181600401559050507f5ada7bcb61317fcef34c60f3ed6612f30405f948126c579af585b4608de59bbe6001548585858560405161059d959493929190611b9a565b60405180910390a160018054905f6105b483611bdf565b919050555050505050565b6105f66040518060a00160405280606081526020015f6001600160a01b031681526020015f81526020015f81526020015f81525090565b5f8281526002602052604090819020815160a0810190925280548290829061061d90611a5b565b80601f016020809104026020016040519081016040528092919081815260200182805461064990611a5b565b80156106945780601f1061066b57610100808354040283529160200191610694565b820191905f5260205f20905b81548152906001019060200180831161067757829003601f168201915b505050918352505060018201546001600160a01b03166020820152600282015460408201526003820154606082015260049091015460809091015292915050565b6003602052815f5260405f2081815481106106ee575f80fd5b905f5260205f20015f91509150505481565b600660209081525f928352604080842090915290825290208054819061072590611a5b565b80601f016020809104026020016040519081016040528092919081815260200182805461075190611a5b565b801561079c5780601f106107735761010080835404028352916020019161079c565b820191905f5260205f20905b81548152906001019060200180831161077f57829003601f168201915b5050505050908060010180546107b190611a5b565b80601f01602080910402602001604051908101604052809291908181526020018280546107dd90611a5b565b80156108285780601f106107ff57610100808354040283529160200191610828565b820191905f5260205f20905b81548152906001019060200180831161080b57829003601f168201915b50505050600283015460039093015491926001600160a01b031691905084565b5f8581526002602052604090206001015485906001600160a01b0316331461088357604051634755657960e01b815260040160405180910390fd5b5f868152600260205260409020600301544210156108b4576040516330e43e8160e21b815260040160405180910390fd5b5f8681526005602052604081205483906108cf908790611a34565b6108d99190611a34565b67ffffffffffffffff8111156108f1576108f1611a47565b60405190808252806020026020018201604052801561091a578160200160208202803683370190505b5090505f805b5f89815260056020526040902054811015610a47575f8981526006602090815260408083208484529091528120600201546001600160a01b03169080805b8a8110156109b6578b8b8281811061097857610978611bf7565b905060200201602081019061098d9190611699565b6001600160a01b0316846001600160a01b0316036109ae57600192506109b6565b60010161095e565b505f5b888110156109f1578989828181106109d3576109d3611bf7565b9050602002013585036109e957600191506109f1565b6001016109b9565b50811580156109fe575080155b15610a3c5782868681518110610a1657610a16611bf7565b6001600160a01b039092166020928302919091019091015284610a3881611bdf565b9550505b505050600101610920565b505f8881526002602081905260409091200154825115610b82575f6064610a6f836046611c0b565b610a799190611c22565b90505f610a868284611a34565b90505f610a938a84611c22565b90505f5b8a811015610b04578160045f8e8e85818110610ab557610ab5611bf7565b9050602002016020810190610aca9190611699565b6001600160a01b03166001600160a01b031681526020019081526020015f205f828254610af79190611c41565b9091555050600101610a97565b505f865183610b139190611c22565b90505f5b8751811015610b78578160045f8a8481518110610b3657610b36611bf7565b60200260200101516001600160a01b03166001600160a01b031681526020019081526020015f205f828254610b6b9190611c41565b9091555050600101610b17565b5050505050610c01565b5f610b8d8883611c22565b90505f5b88811015610bfe578160045f8c8c85818110610baf57610baf611bf7565b9050602002016020810190610bc49190611699565b6001600160a01b03166001600160a01b031681526020019081526020015f205f828254610bf19190611c41565b9091555050600101610b91565b50505b7f55466064f12f512a405dacafe63889da6cc9610752b4f1ec2137076ad52a78fc898989604051610c3493929190611c54565b60405180910390a1505050505050505050565b5f85815260076020908152604080832033845290915290205460ff1615610c8157604051639fbfc58960e01b815260040160405180910390fd5b5f8581526005602090815260409182902054825160a0601f8601849004909302810183019093526080830184815290929182919086908690819085018382808284375f92019190915250505090825250604080516020601f8901819004810282018101909252878152918101919088908890819084018382808284375f920182905250938552505033602080850191909152426040948501528a8352600681528383208684529052502081518190610d399082611adf565b5060208201516001820190610d4e9082611adf565b506040828101516002830180546001600160a01b0319166001600160a01b039092169190911790556060909201516003909101555f8781526005602052908120805491610d9a83611bdf565b90915550505f8681526007602090815260408083203380855290835292819020805460ff1916600117905580518481529182018990528101919091527fb278a68dfafcc5cc9a48159e0a7ca53d17d27a71d312bbbc962e8d79dcd34cfb9060600160405180910390a1505050505050565b60026020525f9081526040902080548190610e2590611a5b565b80601f0160208091040260200160405190810160405280929190818152602001828054610e5190611a5b565b8015610e9c5780601f10610e7357610100808354040283529160200191610e9c565b820191905f5260205f20905b815481529060010190602001808311610e7f57829003601f168201915b5050505060018301546002840154600385015460049095015493946001600160a01b039092169390925085565b610efb604051806080016040528060608152602001606081526020015f6001600160a01b031681526020015f81525090565b5f83815260066020908152604080832085845290915290819020815160808101909252805482908290610f2d90611a5b565b80601f0160208091040260200160405190810160405280929190818152602001828054610f5990611a5b565b8015610fa45780601f10610f7b57610100808354040283529160200191610fa4565b820191905f5260205f20905b815481529060010190602001808311610f8757829003601f168201915b50505050508152602001600182018054610fbd90611a5b565b80601f0160208091040260200160405190810160405280929190818152602001828054610fe990611a5b565b80156110345780601f1061100b57610100808354040283529160200191611034565b820191905f5260205f20905b81548152906001019060200180831161101757829003601f168201915b505050918352505060028201546001600160a01b0316602082015260039091015460409091015290505b92915050565b60605f6110718385611c41565b905060015481111561108257506001545b5f61108d8583611a34565b67ffffffffffffffff8111156110a5576110a5611a47565b60405190808252806020026020018201604052801561110d57816020015b6110fa6040518060a00160405280606081526020015f6001600160a01b031681526020015f81526020015f81526020015f81525090565b8152602001906001900390816110c35790505b509050845b82811015611221575f8181526002602052604090819020815160a0810190925280548290829061114190611a5b565b80601f016020809104026020016040519081016040528092919081815260200182805461116d90611a5b565b80156111b85780601f1061118f576101008083540402835291602001916111b8565b820191905f5260205f20905b81548152906001019060200180831161119b57829003601f168201915b505050918352505060018201546001600160a01b031660208201526002820154604082015260038201546060820152600490910154608090910152826111fe8884611a34565b8151811061120e5761120e611bf7565b6020908102919091010152600101611112565b50949350505050565b6001600160a01b0381165f9081526003602090815260409182902080548351818402810184019094528084526060939283018282801561128757602002820191905f5260205f20905b815481526020019060010190808311611273575b50505050509050919050565b60605f6112a08385611c41565b5f868152600560205260409020549091508111156112c857505f848152600560205260409020545b5f6112d38583611a34565b67ffffffffffffffff8111156112eb576112eb611a47565b60405190808252806020026020018201604052801561134e57816020015b61133b604051806080016040528060608152602001606081526020015f6001600160a01b031681526020015f81525090565b8152602001906001900390816113095790505b509050845b828110156114e2575f8781526006602090815260408083208484529091529081902081516080810190925280548290829061138d90611a5b565b80601f01602080910402602001604051908101604052809291908181526020018280546113b990611a5b565b80156114045780601f106113db57610100808354040283529160200191611404565b820191905f5260205f20905b8154815290600101906020018083116113e757829003601f168201915b5050505050815260200160018201805461141d90611a5b565b80601f016020809104026020016040519081016040528092919081815260200182805461144990611a5b565b80156114945780601f1061146b57610100808354040283529160200191611494565b820191905f5260205f20905b81548152906001019060200180831161147757829003601f168201915b505050918352505060028201546001600160a01b0316602082015260039091015460409091015282518390839081106114cf576114cf611bf7565b6020908102919091010152600101611353565b5095945050505050565b80356001600160a01b0381168114611502575f5ffd5b919050565b5f5f60408385031215611518575f5ffd5b82359150611528602084016114ec565b90509250929050565b5f5f83601f840112611541575f5ffd5b50813567ffffffffffffffff811115611558575f5ffd5b60208301915083602082850101111561156f575f5ffd5b9250929050565b5f5f5f5f60608587031215611589575f5ffd5b843567ffffffffffffffff81111561159f575f5ffd5b6115ab87828801611531565b90989097506020870135966040013595509350505050565b5f602082840312156115d3575f5ffd5b5035919050565b5f81518084528060208401602086015e5f602082860101526020601f19601f83011685010191505092915050565b5f815160a0845261161c60a08501826115da565b6020848101516001600160a01b031690860152604080850151908601526060808501519086015260809384015193909401929092525090919050565b602081525f61166a6020830184611608565b9392505050565b5f5f60408385031215611682575f5ffd5b61168b836114ec565b946020939093013593505050565b5f602082840312156116a9575f5ffd5b61166a826114ec565b5f5f604083850312156116c3575f5ffd5b50508035926020909101359150565b608081525f6116e460808301876115da565b82810360208401526116f681876115da565b6001600160a01b0395909516604084015250506060015292915050565b5f5f83601f840112611723575f5ffd5b50813567ffffffffffffffff81111561173a575f5ffd5b6020830191508360208260051b850101111561156f575f5ffd5b5f5f5f5f5f60608688031215611768575f5ffd5b85359450602086013567ffffffffffffffff811115611785575f5ffd5b61179188828901611713565b909550935050604086013567ffffffffffffffff8111156117b0575f5ffd5b6117bc88828901611713565b969995985093965092949392505050565b5f5f5f5f5f606086880312156117e1575f5ffd5b85359450602086013567ffffffffffffffff8111156117fe575f5ffd5b61180a88828901611531565b909550935050604086013567ffffffffffffffff811115611829575f5ffd5b6117bc88828901611531565b60a081525f61184760a08301886115da565b6001600160a01b039690961660208301525060408101939093526060830191909152608090910152919050565b5f81516080845261188860808501826115da565b9050602083015184820360208601526118a182826115da565b6040858101516001600160a01b0316908701526060948501519490950193909352509192915050565b602081525f61166a6020830184611874565b5f602082016020835280845180835260408501915060408160051b8601019250602086015f5b8281101561193357603f1987860301845261191e858351611608565b94506020938401939190910190600101611902565b50929695505050505050565b602080825282518282018190525f918401906040840190835b81811015611976578351835260209384019390920191600101611958565b509095945050505050565b5f5f5f60608486031215611993575f5ffd5b505081359360208301359350604090920135919050565b5f602082016020835280845180835260408501915060408160051b8601019250602086015f5b8281101561193357603f198786030184526119ec858351611874565b945060209384019391909101906001016119d0565b5f60208284031215611a11575f5ffd5b8151801515811461166a575f5ffd5b634e487b7160e01b5f52601160045260245ffd5b8181038181111561105e5761105e611a20565b634e487b7160e01b5f52604160045260245ffd5b600181811c90821680611a6f57607f821691505b602082108103611a8d57634e487b7160e01b5f52602260045260245ffd5b50919050565b601f821115611ada57805f5260205f20601f840160051c81016020851015611ab85750805b601f840160051c820191505b81811015611ad7575f8155600101611ac4565b50505b505050565b815167ffffffffffffffff811115611af957611af9611a47565b611b0d81611b078454611a5b565b84611a93565b6020601f821160018114611b3f575f8315611b285750848201515b5f19600385901b1c1916600184901b178455611ad7565b5f84815260208120601f198516915b82811015611b6e5787850151825560209485019460019092019101611b4e565b5084821015611b8b57868401515f19600387901b60f8161c191681555b50505050600190811b01905550565b85815260806020820152836080820152838560a08301375f60a085830101525f60a0601f19601f87011683010190508360408301528260608301529695505050505050565b5f60018201611bf057611bf0611a20565b5060010190565b634e487b7160e01b5f52603260045260245ffd5b808202811582820484141761105e5761105e611a20565b5f82611c3c57634e487b7160e01b5f52601260045260245ffd5b500490565b8082018082111561105e5761105e611a20565b83815260406020820181905281018290525f8360608301825b85811015611c9b576001600160a01b03611c86846114ec565b16825260209283019290910190600101611c6d565b50969550505050505056fea2646970667358221220ace34d55aad230a316c334cb29f4dc9091c8cbb65116096bb40f90019b1b47a964736f6c634300081c0033",
  "linkReferences": {},
  "deployedLinkReferences": {},
  "immutableReferences": {},
  "inputSourceName": "project/contracts/Escrow.sol",
  "buildInfoId": "solc-0_8_28-ce60888a09f17462c8985464c1a447375bb3056b"
}