{
  "_format": "hh-sol-artifact-1",
  "contractName": "Escrow",
  "sourceName": "contracts/Escrow.sol",
  "abi": [
    {
      "inputs": [
        {
          "internalType": "address",
          "name": "_token",
          "type": "address"
        }
      ],
      "stateMutability": "nonpayable",
      "type": "constructor"
    },
    {
      "inputs": [],
      "name": "AdminCannotSubmit",
      "type": "error"
    },
    {
      "inputs": [],
      "name": "AlreadySubmitted",
      "type": "error"
    },
    {
      "inputs": [],
      "name": "ChallengeAlreadyClosed",
      "type": "error"
    },
    {
      "inputs": [],
      "name": "ChallengeAlreadyResolved",
      "type": "error"
    },
    {
      "inputs": [],
      "name": "ChallengeNotActive",
      "type": "error"
    },
    {
      "inputs": [],
      "name": "ChallengeNotClosed",
      "type": "error"
    },
    {
      "inputs": [],
      "name": "ChallengeNotPending",
      "type": "error"
    },
    {
      "inputs": [],
      "name": "ChallengeNotRefunded",
      "type": "error"
    },
    {
      "inputs": [],
      "name": "ChallengeNotValidating",
      "type": "error"
    },
    {
      "inputs": [],
      "name": "InsufficientBalance",
      "type": "error"
    },
    {
      "inputs": [],
      "name": "InvalidSubmissionCount",
      "type": "error"
    },
    {
      "inputs": [],
      "name": "OnlyAdmin",
      "type": "error"
    },
    {
      "inputs": [],
      "name": "SubmissionNotFound",
      "type": "error"
    },
    {
      "anonymous": false,
      "inputs": [
        {
          "indexed": false,
          "internalType": "uint256",
          "name": "challengeId",
          "type": "uint256"
        },
        {
          "indexed": false,
          "internalType": "string",
          "name": "metadataURI",
          "type": "string"
        },
        {
          "indexed": false,
          "internalType": "uint256",
          "name": "poolSize",
          "type": "uint256"
        },
        {
          "indexed": false,
          "internalType": "uint256",
          "name": "deadline",
          "type": "uint256"
        }
      ],
      "name": "ChallengeCreated",
      "type": "event"
    },
    {
      "anonymous": false,
      "inputs": [
        {
          "indexed": false,
          "internalType": "uint256",
          "name": "challengeId",
          "type": "uint256"
        },
        {
          "indexed": false,
          "internalType": "uint256[]",
          "name": "awardedSubmissions",
          "type": "uint256[]"
        },
        {
          "indexed": false,
          "internalType": "uint256[]",
          "name": "ineligibleSubmissions",
          "type": "uint256[]"
        }
      ],
      "name": "ChallengeResolved",
      "type": "event"
    },
    {
      "anonymous": false,
      "inputs": [
        {
          "indexed": false,
          "internalType": "address",
          "name": "user",
          "type": "address"
        },
        {
          "indexed": false,
          "internalType": "uint256",
          "name": "amount",
          "type": "uint256"
        }
      ],
      "name": "Claimed",
      "type": "event"
    },
    {
      "anonymous": false,
      "inputs": [
        {
          "indexed": false,
          "internalType": "uint256",
          "name": "challengeId",
          "type": "uint256"
        },
        {
          "indexed": false,
          "internalType": "uint256",
          "name": "submissionId",
          "type": "uint256"
        },
        {
          "indexed": false,
          "internalType": "address",
          "name": "submitter",
          "type": "address"
        }
      ],
      "name": "SubmissionCreated",
      "type": "event"
    },
    {
      "inputs": [
        {
          "internalType": "uint256",
          "name": "challengeId",
          "type": "uint256"
        }
      ],
      "name": "claim",
      "outputs": [],
      "stateMutability": "nonpayable",
      "type": "function"
    },
    {
      "inputs": [
        {
          "internalType": "string",
          "name": "metadataURI",
          "type": "string"
        },
        {
          "internalType": "uint256",
          "name": "poolSize",
          "type": "uint256"
        },
        {
          "internalType": "uint256",
          "name": "deadline",
          "type": "uint256"
        }
      ],
      "name": "createChallenge",
      "outputs": [],
      "stateMutability": "nonpayable",
      "type": "function"
    },
    {
      "inputs": [
        {
          "internalType": "uint256",
          "name": "challengeId",
          "type": "uint256"
        },
        {
          "internalType": "string",
          "name": "contact",
          "type": "string"
        },
        {
          "internalType": "string",
          "name": "submissionURI",
          "type": "string"
        }
      ],
      "name": "createSubmission",
      "outputs": [],
      "stateMutability": "nonpayable",
      "type": "function"
    },
    {
      "inputs": [
        {
          "internalType": "address",
          "name": "admin",
          "type": "address"
        }
      ],
      "name": "getAdminChallenges",
      "outputs": [
        {
          "internalType": "uint256[]",
          "name": "",
          "type": "uint256[]"
        }
      ],
      "stateMutability": "view",
      "type": "function"
    },
    {
      "inputs": [
        {
          "internalType": "uint256",
          "name": "challengeId",
          "type": "uint256"
        }
      ],
      "name": "getChallenge",
      "outputs": [
        {
          "components": [
            {
              "internalType": "string",
              "name": "metadataUri",
              "type": "string"
            },
            {
              "internalType": "address",
              "name": "admin",
              "type": "address"
            },
            {
              "internalType": "uint256",
              "name": "poolSize",
              "type": "uint256"
            },
            {
              "internalType": "uint256",
              "name": "endsAt",
              "type": "uint256"
            },
            {
              "internalType": "uint256",
              "name": "createdAt",
              "type": "uint256"
            },
            {
              "internalType": "enum IEscrowStructs.ChallengeStatus",
              "name": "status",
              "type": "uint8"
            }
          ],
          "internalType": "struct IEscrowStructs.Challenge",
          "name": "",
          "type": "tuple"
        }
      ],
      "stateMutability": "view",
      "type": "function"
    },
    {
      "inputs": [],
      "name": "getChallengesCount",
      "outputs": [
        {
          "internalType": "uint256",
          "name": "",
          "type": "uint256"
        }
      ],
      "stateMutability": "view",
      "type": "function"
    },
    {
      "inputs": [
        {
          "internalType": "uint256",
          "name": "challengeId",
          "type": "uint256"
        },
        {
          "internalType": "address",
          "name": "account",
          "type": "address"
        }
      ],
      "name": "getClaimable",
      "outputs": [
        {
          "internalType": "uint256",
          "name": "",
          "type": "uint256"
        }
      ],
      "stateMutability": "view",
      "type": "function"
    },
    {
      "inputs": [
        {
          "internalType": "uint256",
          "name": "challengeId",
          "type": "uint256"
        },
        {
          "internalType": "uint256",
          "name": "submissionId",
          "type": "uint256"
        }
      ],
      "name": "getSubmission",
      "outputs": [
        {
          "components": [
            {
              "internalType": "string",
              "name": "metadataUri",
              "type": "string"
            },
            {
              "internalType": "address",
              "name": "creator",
              "type": "address"
            },
            {
              "internalType": "string",
              "name": "creatorContact",
              "type": "string"
            },
            {
              "internalType": "enum IEscrowStructs.SubmissionStatus",
              "name": "status",
              "type": "uint8"
            },
            {
              "internalType": "uint256",
              "name": "createdAt",
              "type": "uint256"
            }
          ],
          "internalType": "struct IEscrowStructs.Submission",
          "name": "",
          "type": "tuple"
        }
      ],
      "stateMutability": "view",
      "type": "function"
    },
    {
      "inputs": [
        {
          "internalType": "uint256",
          "name": "challengeId",
          "type": "uint256"
        }
      ],
      "name": "getSubmissionsCount",
      "outputs": [
        {
          "internalType": "uint256",
          "name": "",
          "type": "uint256"
        }
      ],
      "stateMutability": "view",
      "type": "function"
    },
    {
      "inputs": [
        {
          "internalType": "address",
          "name": "user",
          "type": "address"
        }
      ],
      "name": "getUserSubmissions",
      "outputs": [
        {
          "components": [
            {
              "internalType": "uint256",
              "name": "challengeId",
              "type": "uint256"
            },
            {
              "internalType": "uint256",
              "name": "submissionId",
              "type": "uint256"
            }
          ],
          "internalType": "struct IEscrowStructs.UserSubmission[]",
          "name": "",
          "type": "tuple[]"
        }
      ],
      "stateMutability": "view",
      "type": "function"
    },
    {
      "inputs": [
        {
          "internalType": "uint256",
          "name": "challengeId",
          "type": "uint256"
        },
        {
          "internalType": "uint256[]",
          "name": "awardedSubmissions",
          "type": "uint256[]"
        },
        {
          "internalType": "uint256[]",
          "name": "ineligibleSubmissions",
          "type": "uint256[]"
        }
      ],
      "name": "resolveChallenge",
      "outputs": [],
      "stateMutability": "nonpayable",
      "type": "function"
    },
    {
      "inputs": [],
      "name": "token",
      "outputs": [
        {
          "internalType": "contract IERC20",
          "name": "",
          "type": "address"
        }
      ],
      "stateMutability": "view",
      "type": "function"
    }
  ],
  "bytecode": "0x608060405234801561001057600080fd5b50604051612c4e380380612c4e833981810160405281019061003291906100db565b806000806101000a81548173ffffffffffffffffffffffffffffffffffffffff021916908373ffffffffffffffffffffffffffffffffffffffff16021790555050610108565b600080fd5b600073ffffffffffffffffffffffffffffffffffffffff82169050919050565b60006100a88261007d565b9050919050565b6100b88161009d565b81146100c357600080fd5b50565b6000815190506100d5816100af565b92915050565b6000602082840312156100f1576100f0610078565b5b60006100ff848285016100c6565b91505092915050565b612b37806101176000396000f3fe608060405234801561001057600080fd5b50600436106100b45760003560e01c806392a761a91161007157806392a761a91461018b578063a7b8614d146101a7578063b7ed7071146101d7578063b961cbe114610207578063de9acca714610237578063fc0c546a14610267576100b4565b80631aaaac93146100b95780631bdd4b74146100d5578063379607f5146101055780635c2cc332146101215780635c4222951461013f5780638cec0ba01461016f575b600080fd5b6100d360048036038101906100ce9190611b9d565b610285565b005b6100ef60048036038101906100ea9190611c11565b61054c565b6040516100fc9190611e1e565b60405180910390f35b61011f600480360381019061011a9190611c11565b610732565b005b6101296108f3565b6040516101369190611e4f565b60405180910390f35b61015960048036038101906101549190611c11565b6108fd565b6040516101669190611e4f565b60405180910390f35b61018960048036038101906101849190611e6a565b61091a565b005b6101a560048036038101906101a09190611f55565b610dc6565b005b6101c160048036038101906101bc9190612016565b61167d565b6040516101ce9190612121565b60405180910390f35b6101f160048036038101906101ec9190612143565b61172f565b6040516101fe9190612248565b60405180910390f35b610221600480360381019061021c919061226a565b61192d565b60405161022e9190611e4f565b60405180910390f35b610251600480360381019061024c9190612016565b611988565b60405161025e9190612359565b60405180910390f35b61026f611a1f565b60405161027c91906123da565b60405180910390f35b600060015490506040518060c0016040528086868080601f016020809104026020016040519081016040528093929190818152602001838380828437600081840152601f19601f8201169050808301925050505050505081526020013373ffffffffffffffffffffffffffffffffffffffff1681526020018481526020018381526020014281526020016000600281111561032357610322611d1e565b5b81525060026000838152602001908152602001600020600082015181600001908161034e9190612626565b5060208201518160010160006101000a81548173ffffffffffffffffffffffffffffffffffffffff021916908373ffffffffffffffffffffffffffffffffffffffff16021790555060408201518160020155606082015181600301556080820151816004015560a08201518160050160006101000a81548160ff021916908360028111156103df576103de611d1e565b5b0217905550905050600360003373ffffffffffffffffffffffffffffffffffffffff1673ffffffffffffffffffffffffffffffffffffffff1681526020019081526020016000208190806001815401808255809150506001900390600052602060002001600090919091909150556001600081548092919061046090612727565b919050555060008054906101000a900473ffffffffffffffffffffffffffffffffffffffff1673ffffffffffffffffffffffffffffffffffffffff166323b872dd3330866040518463ffffffff1660e01b81526004016104c29392919061277e565b6020604051808303816000875af11580156104e1573d6000803e3d6000fd5b505050506040513d601f19601f8201168201806040525081019061050591906127ed565b507f5ada7bcb61317fcef34c60f3ed6612f30405f948126c579af585b4608de59bbe818686868660405161053d959493929190612867565b60405180910390a15050505050565b610554611a43565b6000600260008481526020019081526020016000206040518060c001604052908160008201805461058490612453565b80601f01602080910402602001604051908101604052809291908181526020018280546105b090612453565b80156105fd5780601f106105d2576101008083540402835291602001916105fd565b820191906000526020600020905b8154815290600101906020018083116105e057829003601f168201915b505050505081526020016001820160009054906101000a900473ffffffffffffffffffffffffffffffffffffffff1673ffffffffffffffffffffffffffffffffffffffff1673ffffffffffffffffffffffffffffffffffffffff1681526020016002820154815260200160038201548152602001600482015481526020016005820160009054906101000a900460ff16600281111561069f5761069e611d1e565b5b60028111156106b1576106b0611d1e565b5b8152505090504281606001511080156106f25750600060028111156106d9576106d8611d1e565b5b8160a0015160028111156106f0576106ef611d1e565b5b145b156107295760018160a0019060028111156107105761070f611d1e565b5b9081600281111561072457610723611d1e565b5b815250505b80915050919050565b6000600a600083815260200190815260200160002060003373ffffffffffffffffffffffffffffffffffffffff1673ffffffffffffffffffffffffffffffffffffffff168152602001908152602001600020549050600081036107c1576040517ff4d678b800000000000000000000000000000000000000000000000000000000815260040160405180910390fd5b60008054906101000a900473ffffffffffffffffffffffffffffffffffffffff1673ffffffffffffffffffffffffffffffffffffffff1663a9059cbb33836040518363ffffffff1660e01b815260040161081c9291906128b5565b6020604051808303816000875af115801561083b573d6000803e3d6000fd5b505050506040513d601f19601f8201168201806040525081019061085f91906127ed565b506000600a600084815260200190815260200160002060003373ffffffffffffffffffffffffffffffffffffffff1673ffffffffffffffffffffffffffffffffffffffff168152602001908152602001600020819055507fd8138f8a3f377c5259ca548e70e4c2de94f129f5a11036a15b69513cba2b426a33826040516108e79291906128b5565b60405180910390a15050565b6000600154905090565b600060046000838152602001908152602001600020549050919050565b6008600086815260200190815260200160002060003373ffffffffffffffffffffffffffffffffffffffff1673ffffffffffffffffffffffffffffffffffffffff16815260200190815260200160002060009054906101000a900460ff16156109af576040517f9fbfc58900000000000000000000000000000000000000000000000000000000815260040160405180910390fd5b42600260008781526020019081526020016000206003015410156109ff576040517fbeb11d3b00000000000000000000000000000000000000000000000000000000815260040160405180910390fd5b3373ffffffffffffffffffffffffffffffffffffffff166002600087815260200190815260200160002060010160009054906101000a900473ffffffffffffffffffffffffffffffffffffffff1673ffffffffffffffffffffffffffffffffffffffff1603610a9a576040517fb98bbc6000000000000000000000000000000000000000000000000000000000815260040160405180910390fd5b6000600460008781526020019081526020016000205490506040518060a0016040528084848080601f016020809104026020016040519081016040528093929190818152602001838380828437600081840152601f19601f8201169050808301925050505050505081526020013373ffffffffffffffffffffffffffffffffffffffff16815260200186868080601f016020809104026020016040519081016040528093929190818152602001838380828437600081840152601f19601f82011690508083019250505050505050815260200160006003811115610b8157610b80611d1e565b5b8152602001428152506005600088815260200190815260200160002060008381526020019081526020016000206000820151816000019081610bc39190612626565b5060208201518160010160006101000a81548173ffffffffffffffffffffffffffffffffffffffff021916908373ffffffffffffffffffffffffffffffffffffffff1602179055506040820151816002019081610c209190612626565b5060608201518160030160006101000a81548160ff02191690836003811115610c4c57610c4b611d1e565b5b021790555060808201518160040155905050600460008781526020019081526020016000206000815480929190610c8290612727565b919050555060016008600088815260200190815260200160002060003373ffffffffffffffffffffffffffffffffffffffff1673ffffffffffffffffffffffffffffffffffffffff16815260200190815260200160002060006101000a81548160ff021916908315150217905550600960003373ffffffffffffffffffffffffffffffffffffffff1673ffffffffffffffffffffffffffffffffffffffff1681526020019081526020016000206040518060400160405280888152602001838152509080600181540180825580915050600190039060005260206000209060020201600090919091909150600082015181600001556020820151816001015550507fb278a68dfafcc5cc9a48159e0a7ca53d17d27a71d312bbbc962e8d79dcd34cfb818733604051610db6939291906128de565b60405180910390a1505050505050565b843373ffffffffffffffffffffffffffffffffffffffff166002600083815260200190815260200160002060010160009054906101000a900473ffffffffffffffffffffffffffffffffffffffff1673ffffffffffffffffffffffffffffffffffffffff1614610e62576040517f4755657900000000000000000000000000000000000000000000000000000000815260040160405180910390fd5b4260026000888152602001908152602001600020600301541115610eb2576040517fc390fa0400000000000000000000000000000000000000000000000000000000815260040160405180910390fd5b600280811115610ec557610ec4611d1e565b5b6002600088815260200190815260200160002060050160009054906101000a900460ff166002811115610efb57610efa611d1e565b5b03610f32576040517f2d921dad00000000000000000000000000000000000000000000000000000000815260040160405180910390fd5b60046000878152602001908152602001600020548383905086869050610f589190612915565b1115610f90576040517fd3c4328600000000000000000000000000000000000000000000000000000000815260040160405180910390fd5b600280600088815260200190815260200160002060050160006101000a81548160ff02191690836002811115610fc957610fc8611d1e565b5b02179055506000806000600460008a81526020019081526020016000205490506000811480610ffa57508585905081145b156110f25760008054906101000a900473ffffffffffffffffffffffffffffffffffffffff1673ffffffffffffffffffffffffffffffffffffffff1663a9059cbb600260008c815260200190815260200160002060010160009054906101000a900473ffffffffffffffffffffffffffffffffffffffff16600260008d8152602001908152602001600020600201546040518363ffffffff1660e01b81526004016110a69291906128b5565b6020604051808303816000875af11580156110c5573d6000803e3d6000fd5b505050506040513d601f19601f820116820180604052508101906110e991906127ed565b50505050611675565b8787905086869050826111059190612949565b0361113a5787879050600260008b81526020019081526020016000206002015461112f91906129ac565b9250600091506111d2565b8787905060646046600260008d81526020019081526020016000206002015461116391906129dd565b61116d91906129ac565b61117791906129ac565b925087879050868690508261118c9190612949565b6111969190612949565b6064601e600260008d8152602001908152602001600020600201546111bb91906129dd565b6111c591906129ac565b6111cf91906129ac565b91505b60005b88889050811015611243576001600660008c815260200190815260200160002060008b8b8581811061120a57611209612a1f565b5b90506020020135815260200190815260200160002060006101000a81548160ff02191690831515021790555080806001019150506111d5565b5060005b868690508110156112b5576001600760008c8152602001908152602001600020600089898581811061127c5761127b612a1f565b5b90506020020135815260200190815260200160002060006101000a81548160ff0219169083151502179055508080600101915050611247565b5060005b8181101561163157600660008b8152602001908152602001600020600082815260200190815260200160002060009054906101000a900460ff16156113fb576003600560008c8152602001908152602001600020600083815260200190815260200160002060030160006101000a81548160ff0219169083600381111561134357611342611d1e565b5b021790555083600a60008c81526020019081526020016000206000600560008e8152602001908152602001600020600085815260200190815260200160002060010160009054906101000a900473ffffffffffffffffffffffffffffffffffffffff1673ffffffffffffffffffffffffffffffffffffffff1673ffffffffffffffffffffffffffffffffffffffff16815260200190815260200160002060008282546113ef9190612915565b92505081905550611624565b600760008b8152602001908152602001600020600082815260200190815260200160002060009054906101000a900460ff1615611524576001600560008c8152602001908152602001600020600083815260200190815260200160002060030160006101000a81548160ff0219169083600381111561147d5761147c611d1e565b5b02179055506000600a60008c81526020019081526020016000206000600560008e8152602001908152602001600020600085815260200190815260200160002060010160009054906101000a900473ffffffffffffffffffffffffffffffffffffffff1673ffffffffffffffffffffffffffffffffffffffff1673ffffffffffffffffffffffffffffffffffffffff16815260200190815260200160002081905550611623565b6002600560008c8152602001908152602001600020600083815260200190815260200160002060030160006101000a81548160ff0219169083600381111561156f5761156e611d1e565b5b021790555082600a60008c81526020019081526020016000206000600560008e8152602001908152602001600020600085815260200190815260200160002060010160009054906101000a900473ffffffffffffffffffffffffffffffffffffffff1673ffffffffffffffffffffffffffffffffffffffff1673ffffffffffffffffffffffffffffffffffffffff168152602001908152602001600020600082825461161b9190612915565b925050819055505b5b80806001019150506112b9565b507f2ae9cf9c1491e6f83533986d7898aeaa71b08af5c10eaddab515d50223bb905a8989898989604051611669959493929190612ab8565b60405180910390a15050505b505050505050565b6060600960008373ffffffffffffffffffffffffffffffffffffffff1673ffffffffffffffffffffffffffffffffffffffff168152602001908152602001600020805480602002602001604051908101604052809291908181526020016000905b82821015611724578382906000526020600020906002020160405180604001604052908160008201548152602001600182015481525050815260200190600101906116de565b505050509050919050565b611737611aa1565b6005600084815260200190815260200160002060008381526020019081526020016000206040518060a001604052908160008201805461177690612453565b80601f01602080910402602001604051908101604052809291908181526020018280546117a290612453565b80156117ef5780601f106117c4576101008083540402835291602001916117ef565b820191906000526020600020905b8154815290600101906020018083116117d257829003601f168201915b505050505081526020016001820160009054906101000a900473ffffffffffffffffffffffffffffffffffffffff1673ffffffffffffffffffffffffffffffffffffffff1673ffffffffffffffffffffffffffffffffffffffff16815260200160028201805461185e90612453565b80601f016020809104026020016040519081016040528092919081815260200182805461188a90612453565b80156118d75780601f106118ac576101008083540402835291602001916118d7565b820191906000526020600020905b8154815290600101906020018083116118ba57829003601f168201915b505050505081526020016003820160009054906101000a900460ff16600381111561190557611904611d1e565b5b600381111561191757611916611d1e565b5b8152602001600482015481525050905092915050565b6000600a600084815260200190815260200160002060008373ffffffffffffffffffffffffffffffffffffffff1673ffffffffffffffffffffffffffffffffffffffff16815260200190815260200160002054905092915050565b6060600360008373ffffffffffffffffffffffffffffffffffffffff1673ffffffffffffffffffffffffffffffffffffffff168152602001908152602001600020805480602002602001604051908101604052809291908181526020018280548015611a1357602002820191906000526020600020905b8154815260200190600101908083116119ff575b50505050509050919050565b60008054906101000a900473ffffffffffffffffffffffffffffffffffffffff1681565b6040518060c0016040528060608152602001600073ffffffffffffffffffffffffffffffffffffffff16815260200160008152602001600081526020016000815260200160006002811115611a9b57611a9a611d1e565b5b81525090565b6040518060a0016040528060608152602001600073ffffffffffffffffffffffffffffffffffffffff1681526020016060815260200160006003811115611aeb57611aea611d1e565b5b8152602001600081525090565b600080fd5b600080fd5b600080fd5b600080fd5b600080fd5b60008083601f840112611b2757611b26611b02565b5b8235905067ffffffffffffffff811115611b4457611b43611b07565b5b602083019150836001820283011115611b6057611b5f611b0c565b5b9250929050565b6000819050919050565b611b7a81611b67565b8114611b8557600080fd5b50565b600081359050611b9781611b71565b92915050565b60008060008060608587031215611bb757611bb6611af8565b5b600085013567ffffffffffffffff811115611bd557611bd4611afd565b5b611be187828801611b11565b94509450506020611bf487828801611b88565b9250506040611c0587828801611b88565b91505092959194509250565b600060208284031215611c2757611c26611af8565b5b6000611c3584828501611b88565b91505092915050565b600081519050919050565b600082825260208201905092915050565b60005b83811015611c78578082015181840152602081019050611c5d565b60008484015250505050565b6000601f19601f8301169050919050565b6000611ca082611c3e565b611caa8185611c49565b9350611cba818560208601611c5a565b611cc381611c84565b840191505092915050565b600073ffffffffffffffffffffffffffffffffffffffff82169050919050565b6000611cf982611cce565b9050919050565b611d0981611cee565b82525050565b611d1881611b67565b82525050565b7f4e487b7100000000000000000000000000000000000000000000000000000000600052602160045260246000fd5b60038110611d5e57611d5d611d1e565b5b50565b6000819050611d6f82611d4d565b919050565b6000611d7f82611d61565b9050919050565b611d8f81611d74565b82525050565b600060c0830160008301518482036000860152611db28282611c95565b9150506020830151611dc76020860182611d00565b506040830151611dda6040860182611d0f565b506060830151611ded6060860182611d0f565b506080830151611e006080860182611d0f565b5060a0830151611e1360a0860182611d86565b508091505092915050565b60006020820190508181036000830152611e388184611d95565b905092915050565b611e4981611b67565b82525050565b6000602082019050611e646000830184611e40565b92915050565b600080600080600060608688031215611e8657611e85611af8565b5b6000611e9488828901611b88565b955050602086013567ffffffffffffffff811115611eb557611eb4611afd565b5b611ec188828901611b11565b9450945050604086013567ffffffffffffffff811115611ee457611ee3611afd565b5b611ef088828901611b11565b92509250509295509295909350565b60008083601f840112611f1557611f14611b02565b5b8235905067ffffffffffffffff811115611f3257611f31611b07565b5b602083019150836020820283011115611f4e57611f4d611b0c565b5b9250929050565b600080600080600060608688031215611f7157611f70611af8565b5b6000611f7f88828901611b88565b955050602086013567ffffffffffffffff811115611fa057611f9f611afd565b5b611fac88828901611eff565b9450945050604086013567ffffffffffffffff811115611fcf57611fce611afd565b5b611fdb88828901611eff565b92509250509295509295909350565b611ff381611cee565b8114611ffe57600080fd5b50565b60008135905061201081611fea565b92915050565b60006020828403121561202c5761202b611af8565b5b600061203a84828501612001565b91505092915050565b600081519050919050565b600082825260208201905092915050565b6000819050602082019050919050565b6040820160008201516120856000850182611d0f565b5060208201516120986020850182611d0f565b50505050565b60006120aa838361206f565b60408301905092915050565b6000602082019050919050565b60006120ce82612043565b6120d8818561204e565b93506120e38361205f565b8060005b838110156121145781516120fb888261209e565b9750612106836120b6565b9250506001810190506120e7565b5085935050505092915050565b6000602082019050818103600083015261213b81846120c3565b905092915050565b6000806040838503121561215a57612159611af8565b5b600061216885828601611b88565b925050602061217985828601611b88565b9150509250929050565b6004811061219457612193611d1e565b5b50565b60008190506121a582612183565b919050565b60006121b582612197565b9050919050565b6121c5816121aa565b82525050565b600060a08301600083015184820360008601526121e88282611c95565b91505060208301516121fd6020860182611d00565b50604083015184820360408601526122158282611c95565b915050606083015161222a60608601826121bc565b50608083015161223d6080860182611d0f565b508091505092915050565b6000602082019050818103600083015261226281846121cb565b905092915050565b6000806040838503121561228157612280611af8565b5b600061228f85828601611b88565b92505060206122a085828601612001565b9150509250929050565b600081519050919050565b600082825260208201905092915050565b6000819050602082019050919050565b60006122e28383611d0f565b60208301905092915050565b6000602082019050919050565b6000612306826122aa565b61231081856122b5565b935061231b836122c6565b8060005b8381101561234c57815161233388826122d6565b975061233e836122ee565b92505060018101905061231f565b5085935050505092915050565b6000602082019050818103600083015261237381846122fb565b905092915050565b6000819050919050565b60006123a061239b61239684611cce565b61237b565b611cce565b9050919050565b60006123b282612385565b9050919050565b60006123c4826123a7565b9050919050565b6123d4816123b9565b82525050565b60006020820190506123ef60008301846123cb565b92915050565b7f4e487b7100000000000000000000000000000000000000000000000000000000600052604160045260246000fd5b7f4e487b7100000000000000000000000000000000000000000000000000000000600052602260045260246000fd5b6000600282049050600182168061246b57607f821691505b60208210810361247e5761247d612424565b5b50919050565b60008190508160005260206000209050919050565b60006020601f8301049050919050565b600082821b905092915050565b6000600883026124e67fffffffffffffffffffffffffffffffffffffffffffffffffffffffffffffffff826124a9565b6124f086836124a9565b95508019841693508086168417925050509392505050565b600061252361251e61251984611b67565b61237b565b611b67565b9050919050565b6000819050919050565b61253d83612508565b6125516125498261252a565b8484546124b6565b825550505050565b600090565b612566612559565b612571818484612534565b505050565b5b818110156125955761258a60008261255e565b600181019050612577565b5050565b601f8211156125da576125ab81612484565b6125b484612499565b810160208510156125c3578190505b6125d76125cf85612499565b830182612576565b50505b505050565b600082821c905092915050565b60006125fd600019846008026125df565b1980831691505092915050565b600061261683836125ec565b9150826002028217905092915050565b61262f82611c3e565b67ffffffffffffffff811115612648576126476123f5565b5b6126528254612453565b61265d828285612599565b600060209050601f831160018114612690576000841561267e578287015190505b612688858261260a565b8655506126f0565b601f19841661269e86612484565b60005b828110156126c6578489015182556001820191506020850194506020810190506126a1565b868310156126e357848901516126df601f8916826125ec565b8355505b6001600288020188555050505b505050505050565b7f4e487b7100000000000000000000000000000000000000000000000000000000600052601160045260246000fd5b600061273282611b67565b91507fffffffffffffffffffffffffffffffffffffffffffffffffffffffffffffffff8203612764576127636126f8565b5b600182019050919050565b61277881611cee565b82525050565b6000606082019050612793600083018661276f565b6127a0602083018561276f565b6127ad6040830184611e40565b949350505050565b60008115159050919050565b6127ca816127b5565b81146127d557600080fd5b50565b6000815190506127e7816127c1565b92915050565b60006020828403121561280357612802611af8565b5b6000612811848285016127d8565b91505092915050565b600082825260208201905092915050565b82818337600083830152505050565b6000612846838561281a565b935061285383858461282b565b61285c83611c84565b840190509392505050565b600060808201905061287c6000830188611e40565b818103602083015261288f81868861283a565b905061289e6040830185611e40565b6128ab6060830184611e40565b9695505050505050565b60006040820190506128ca600083018561276f565b6128d76020830184611e40565b9392505050565b60006060820190506128f36000830186611e40565b6129006020830185611e40565b61290d604083018461276f565b949350505050565b600061292082611b67565b915061292b83611b67565b9250828201905080821115612943576129426126f8565b5b92915050565b600061295482611b67565b915061295f83611b67565b9250828203905081811115612977576129766126f8565b5b92915050565b7f4e487b7100000000000000000000000000000000000000000000000000000000600052601260045260246000fd5b60006129b782611b67565b91506129c283611b67565b9250826129d2576129d161297d565b5b828204905092915050565b60006129e882611b67565b91506129f383611b67565b9250828202612a0181611b67565b91508282048414831517612a1857612a176126f8565b5b5092915050565b7f4e487b7100000000000000000000000000000000000000000000000000000000600052603260045260246000fd5b600080fd5b82818337505050565b6000612a6883856122b5565b93507f07ffffffffffffffffffffffffffffffffffffffffffffffffffffffffffffff831115612a9b57612a9a612a4e565b5b602083029250612aac838584612a53565b82840190509392505050565b6000606082019050612acd6000830188611e40565b8181036020830152612ae0818688612a5c565b90508181036040830152612af5818486612a5c565b9050969550505050505056fea264697066735822122001282b7f8ed550ffeb91e2c4e07b45f4a020fb4fdbb18af551b368c8b3da8b7c64736f6c634300081c0033",
  "linkReferences": {},
  "deployedLinkReferences": {}
}