{
  "_format": "hh-sol-artifact-1",
  "contractName": "Escrow",
  "sourceName": "contracts/Escrow.sol",
  "abi": [
    {
      "inputs": [
        {
          "internalType": "address",
          "name": "_token",
          "type": "address"
        }
      ],
      "stateMutability": "nonpayable",
      "type": "constructor"
    },
    {
      "inputs": [],
      "name": "AdminCannotSubmit",
      "type": "error"
    },
    {
      "inputs": [],
      "name": "AlreadySubmitted",
      "type": "error"
    },
    {
      "inputs": [],
      "name": "ChallengeAlreadyClosed",
      "type": "error"
    },
    {
      "inputs": [],
      "name": "ChallengeAlreadyResolved",
      "type": "error"
    },
    {
      "inputs": [],
      "name": "ChallengeNotActive",
      "type": "error"
    },
    {
      "inputs": [],
      "name": "ChallengeNotClosed",
      "type": "error"
    },
    {
      "inputs": [],
      "name": "ChallengeNotPending",
      "type": "error"
    },
    {
      "inputs": [],
      "name": "ChallengeNotRefunded",
      "type": "error"
    },
    {
      "inputs": [],
      "name": "ChallengeNotValidating",
      "type": "error"
    },
    {
      "inputs": [],
      "name": "ChallengerNotRegistered",
      "type": "error"
    },
    {
      "inputs": [],
      "name": "InsufficientBalance",
      "type": "error"
    },
    {
      "inputs": [],
      "name": "InvalidSubmissionCount",
      "type": "error"
    },
    {
      "inputs": [],
      "name": "OnlyAdmin",
      "type": "error"
    },
    {
      "inputs": [],
      "name": "SubmissionNotFound",
      "type": "error"
    },
    {
      "anonymous": false,
      "inputs": [
        {
          "indexed": false,
          "internalType": "uint256",
          "name": "challengeId",
          "type": "uint256"
        },
        {
          "indexed": false,
          "internalType": "string",
          "name": "metadataURI",
          "type": "string"
        },
        {
          "indexed": false,
          "internalType": "uint256",
          "name": "poolSize",
          "type": "uint256"
        },
        {
          "indexed": false,
          "internalType": "uint256",
          "name": "deadline",
          "type": "uint256"
        }
      ],
      "name": "ChallengeCreated",
      "type": "event"
    },
    {
      "anonymous": false,
      "inputs": [
        {
          "indexed": false,
          "internalType": "uint256",
          "name": "challengeId",
          "type": "uint256"
        },
        {
          "indexed": false,
          "internalType": "uint256[]",
          "name": "awardedSubmissions",
          "type": "uint256[]"
        },
        {
          "indexed": false,
          "internalType": "uint256[]",
          "name": "ineligibleSubmissions",
          "type": "uint256[]"
        }
      ],
      "name": "ChallengeResolved",
      "type": "event"
    },
    {
      "anonymous": false,
      "inputs": [
        {
          "indexed": false,
          "internalType": "address",
          "name": "user",
          "type": "address"
        },
        {
          "indexed": false,
          "internalType": "uint256",
          "name": "amount",
          "type": "uint256"
        }
      ],
      "name": "Claimed",
      "type": "event"
    },
    {
      "anonymous": false,
      "inputs": [
        {
          "indexed": false,
          "internalType": "uint256",
          "name": "challengeId",
          "type": "uint256"
        },
        {
          "indexed": false,
          "internalType": "uint256",
          "name": "submissionId",
          "type": "uint256"
        },
        {
          "indexed": false,
          "internalType": "address",
          "name": "submitter",
          "type": "address"
        }
      ],
      "name": "SubmissionCreated",
      "type": "event"
    },
    {
      "inputs": [
        {
          "internalType": "uint256",
          "name": "challengeId",
          "type": "uint256"
        }
      ],
      "name": "claim",
      "outputs": [],
      "stateMutability": "nonpayable",
      "type": "function"
    },
    {
      "inputs": [
        {
          "internalType": "string",
          "name": "metadataURI",
          "type": "string"
        },
        {
          "internalType": "uint256",
          "name": "poolSize",
          "type": "uint256"
        },
        {
          "internalType": "uint256",
          "name": "deadline",
          "type": "uint256"
        }
      ],
      "name": "createChallenge",
      "outputs": [],
      "stateMutability": "nonpayable",
      "type": "function"
    },
    {
      "inputs": [
        {
          "internalType": "uint256",
          "name": "challengeId",
          "type": "uint256"
        },
        {
          "internalType": "string",
          "name": "contact",
          "type": "string"
        },
        {
          "internalType": "string",
          "name": "submissionURI",
          "type": "string"
        }
      ],
      "name": "createSubmission",
      "outputs": [],
      "stateMutability": "nonpayable",
      "type": "function"
    },
    {
      "inputs": [
        {
          "internalType": "uint256",
          "name": "challengeId",
          "type": "uint256"
        }
      ],
      "name": "getChallenge",
      "outputs": [
        {
          "components": [
            {
              "internalType": "string",
              "name": "metadataUri",
              "type": "string"
            },
            {
              "internalType": "address",
              "name": "admin",
              "type": "address"
            },
            {
              "internalType": "uint256",
              "name": "poolSize",
              "type": "uint256"
            },
            {
              "internalType": "uint256",
              "name": "endsAt",
              "type": "uint256"
            },
            {
              "internalType": "uint256",
              "name": "createdAt",
              "type": "uint256"
            },
            {
              "internalType": "enum IEscrowStructs.ChallengeStatus",
              "name": "status",
              "type": "uint8"
            }
          ],
          "internalType": "struct IEscrowStructs.Challenge",
          "name": "",
          "type": "tuple"
        }
      ],
      "stateMutability": "view",
      "type": "function"
    },
    {
      "inputs": [
        {
          "internalType": "address",
          "name": "challenger",
          "type": "address"
        }
      ],
      "name": "getChallengerChallenges",
      "outputs": [
        {
          "internalType": "uint256[]",
          "name": "",
          "type": "uint256[]"
        }
      ],
      "stateMutability": "view",
      "type": "function"
    },
    {
      "inputs": [],
      "name": "getChallengesCount",
      "outputs": [
        {
          "internalType": "uint256",
          "name": "",
          "type": "uint256"
        }
      ],
      "stateMutability": "view",
      "type": "function"
    },
    {
      "inputs": [
        {
          "internalType": "uint256",
          "name": "challengeId",
          "type": "uint256"
        },
        {
          "internalType": "address",
          "name": "account",
          "type": "address"
        }
      ],
      "name": "getClaimable",
      "outputs": [
        {
          "internalType": "uint256",
          "name": "",
          "type": "uint256"
        }
      ],
      "stateMutability": "view",
      "type": "function"
    },
    {
      "inputs": [
        {
          "internalType": "address",
          "name": "user",
          "type": "address"
        }
      ],
      "name": "getProfile",
      "outputs": [
        {
          "components": [
            {
              "internalType": "string",
              "name": "name",
              "type": "string"
            },
            {
              "internalType": "string",
              "name": "description",
              "type": "string"
            },
            {
              "internalType": "string",
              "name": "website",
              "type": "string"
            },
            {
              "internalType": "bool",
              "name": "verified",
              "type": "bool"
            }
          ],
          "internalType": "struct IEscrowStructs.ChallengerProfile",
          "name": "",
          "type": "tuple"
        }
      ],
      "stateMutability": "view",
      "type": "function"
    },
    {
      "inputs": [
        {
          "internalType": "uint256",
          "name": "challengeId",
          "type": "uint256"
        },
        {
          "internalType": "uint256",
          "name": "submissionId",
          "type": "uint256"
        }
      ],
      "name": "getSubmission",
      "outputs": [
        {
          "components": [
            {
              "internalType": "string",
              "name": "metadataUri",
              "type": "string"
            },
            {
              "internalType": "address",
              "name": "creator",
              "type": "address"
            },
            {
              "internalType": "string",
              "name": "creatorContact",
              "type": "string"
            },
            {
              "internalType": "enum IEscrowStructs.SubmissionStatus",
              "name": "status",
              "type": "uint8"
            },
            {
              "internalType": "uint256",
              "name": "createdAt",
              "type": "uint256"
            }
          ],
          "internalType": "struct IEscrowStructs.Submission",
          "name": "",
          "type": "tuple"
        }
      ],
      "stateMutability": "view",
      "type": "function"
    },
    {
      "inputs": [
        {
          "internalType": "uint256",
          "name": "challengeId",
          "type": "uint256"
        }
      ],
      "name": "getSubmissionsCount",
      "outputs": [
        {
          "internalType": "uint256",
          "name": "",
          "type": "uint256"
        }
      ],
      "stateMutability": "view",
      "type": "function"
    },
    {
      "inputs": [
        {
          "internalType": "address",
          "name": "user",
          "type": "address"
        }
      ],
      "name": "getUserSubmissions",
      "outputs": [
        {
          "components": [
            {
              "internalType": "uint256",
              "name": "challengeId",
              "type": "uint256"
            },
            {
              "internalType": "uint256",
              "name": "submissionId",
              "type": "uint256"
            }
          ],
          "internalType": "struct IEscrowStructs.UserSubmission[]",
          "name": "",
          "type": "tuple[]"
        }
      ],
      "stateMutability": "view",
      "type": "function"
    },
    {
      "inputs": [
        {
          "internalType": "uint256",
          "name": "challengeId",
          "type": "uint256"
        },
        {
          "internalType": "uint256[]",
          "name": "awardedSubmissions",
          "type": "uint256[]"
        },
        {
          "internalType": "uint256[]",
          "name": "ineligibleSubmissions",
          "type": "uint256[]"
        }
      ],
      "name": "resolveChallenge",
      "outputs": [],
      "stateMutability": "nonpayable",
      "type": "function"
    },
    {
      "inputs": [
        {
          "internalType": "string",
          "name": "name",
          "type": "string"
        },
        {
          "internalType": "string",
          "name": "description",
          "type": "string"
        },
        {
          "internalType": "string",
          "name": "website",
          "type": "string"
        }
      ],
      "name": "setProfile",
      "outputs": [],
      "stateMutability": "nonpayable",
      "type": "function"
    },
    {
      "inputs": [],
      "name": "token",
      "outputs": [
        {
          "internalType": "contract IERC20",
          "name": "",
          "type": "address"
        }
      ],
      "stateMutability": "view",
      "type": "function"
    }
  ],
  "bytecode": "0x608060405234801561001057600080fd5b50604051613216380380613216833981810160405281019061003291906100db565b806000806101000a81548173ffffffffffffffffffffffffffffffffffffffff021916908373ffffffffffffffffffffffffffffffffffffffff16021790555050610108565b600080fd5b600073ffffffffffffffffffffffffffffffffffffffff82169050919050565b60006100a88261007d565b9050919050565b6100b88161009d565b81146100c357600080fd5b50565b6000815190506100d5816100af565b92915050565b6000602082840312156100f1576100f0610078565b5b60006100ff848285016100c6565b91505092915050565b6130ff806101176000396000f3fe608060405234801561001057600080fd5b50600436106100ea5760003560e01c8063864c238a1161008c578063a7b8614d11610066578063a7b8614d14610259578063b7ed707114610289578063b961cbe1146102b9578063fc0c546a146102e9576100ea565b8063864c238a146101f15780638cec0ba01461022157806392a761a91461023d576100ea565b8063379607f5116100c8578063379607f51461016b57806352640314146101875780635c2cc332146101a35780635c422295146101c1576100ea565b80630f53a470146100ef5780631aaaac931461011f5780631bdd4b741461013b575b600080fd5b61010960048036038101906101049190611fd2565b610307565b604051610116919061211b565b60405180910390f35b610139600480360381019061013491906121d8565b610531565b005b6101556004803603810190610150919061224c565b6107f8565b6040516101629190612397565b60405180910390f35b6101856004803603810190610180919061224c565b6109de565b005b6101a1600480360381019061019c91906123b9565b610b9f565b005b6101ab610d3b565b6040516101b8919061247c565b60405180910390f35b6101db60048036038101906101d6919061224c565b610d45565b6040516101e8919061247c565b60405180910390f35b61020b60048036038101906102069190611fd2565b610d62565b6040516102189190612546565b60405180910390f35b61023b60048036038101906102369190612568565b610df9565b005b61025760048036038101906102529190612653565b6112a5565b005b610273600480360381019061026e9190611fd2565b611b5c565b60405161028091906127c6565b60405180910390f35b6102a3600480360381019061029e91906127e8565b611c0e565b6040516102b091906128ed565b60405180910390f35b6102d360048036038101906102ce919061290f565b611e0c565b6040516102e0919061247c565b60405180910390f35b6102f1611e67565b6040516102fe91906129ae565b60405180910390f35b61030f611e8b565b600b60008373ffffffffffffffffffffffffffffffffffffffff1673ffffffffffffffffffffffffffffffffffffffff168152602001908152602001600020604051806080016040529081600082018054610369906129f8565b80601f0160208091040260200160405190810160405280929190818152602001828054610395906129f8565b80156103e25780601f106103b7576101008083540402835291602001916103e2565b820191906000526020600020905b8154815290600101906020018083116103c557829003601f168201915b505050505081526020016001820180546103fb906129f8565b80601f0160208091040260200160405190810160405280929190818152602001828054610427906129f8565b80156104745780601f1061044957610100808354040283529160200191610474565b820191906000526020600020905b81548152906001019060200180831161045757829003601f168201915b5050505050815260200160028201805461048d906129f8565b80601f01602080910402602001604051908101604052809291908181526020018280546104b9906129f8565b80156105065780601f106104db57610100808354040283529160200191610506565b820191906000526020600020905b8154815290600101906020018083116104e957829003601f168201915b505050505081526020016003820160009054906101000a900460ff1615151515815250509050919050565b600060015490506040518060c0016040528086868080601f016020809104026020016040519081016040528093929190818152602001838380828437600081840152601f19601f8201169050808301925050505050505081526020013373ffffffffffffffffffffffffffffffffffffffff168152602001848152602001838152602001428152602001600060028111156105cf576105ce612297565b5b8152506002600083815260200190815260200160002060008201518160000190816105fa9190612bfa565b5060208201518160010160006101000a81548173ffffffffffffffffffffffffffffffffffffffff021916908373ffffffffffffffffffffffffffffffffffffffff16021790555060408201518160020155606082015181600301556080820151816004015560a08201518160050160006101000a81548160ff0219169083600281111561068b5761068a612297565b5b0217905550905050600360003373ffffffffffffffffffffffffffffffffffffffff1673ffffffffffffffffffffffffffffffffffffffff1681526020019081526020016000208190806001815401808255809150506001900390600052602060002001600090919091909150556001600081548092919061070c90612cfb565b919050555060008054906101000a900473ffffffffffffffffffffffffffffffffffffffff1673ffffffffffffffffffffffffffffffffffffffff166323b872dd3330866040518463ffffffff1660e01b815260040161076e93929190612d52565b6020604051808303816000875af115801561078d573d6000803e3d6000fd5b505050506040513d601f19601f820116820180604052508101906107b19190612db5565b507f5ada7bcb61317fcef34c60f3ed6612f30405f948126c579af585b4608de59bbe81868686866040516107e9959493929190612e2f565b60405180910390a15050505050565b610800611eb5565b6000600260008481526020019081526020016000206040518060c0016040529081600082018054610830906129f8565b80601f016020809104026020016040519081016040528092919081815260200182805461085c906129f8565b80156108a95780601f1061087e576101008083540402835291602001916108a9565b820191906000526020600020905b81548152906001019060200180831161088c57829003601f168201915b505050505081526020016001820160009054906101000a900473ffffffffffffffffffffffffffffffffffffffff1673ffffffffffffffffffffffffffffffffffffffff1673ffffffffffffffffffffffffffffffffffffffff1681526020016002820154815260200160038201548152602001600482015481526020016005820160009054906101000a900460ff16600281111561094b5761094a612297565b5b600281111561095d5761095c612297565b5b81525050905042816060015110801561099e57506000600281111561098557610984612297565b5b8160a00151600281111561099c5761099b612297565b5b145b156109d55760018160a0019060028111156109bc576109bb612297565b5b908160028111156109d0576109cf612297565b5b815250505b80915050919050565b60006009600083815260200190815260200160002060003373ffffffffffffffffffffffffffffffffffffffff1673ffffffffffffffffffffffffffffffffffffffff16815260200190815260200160002054905060008103610a6d576040517ff4d678b800000000000000000000000000000000000000000000000000000000815260040160405180910390fd5b60008054906101000a900473ffffffffffffffffffffffffffffffffffffffff1673ffffffffffffffffffffffffffffffffffffffff1663a9059cbb33836040518363ffffffff1660e01b8152600401610ac8929190612e7d565b6020604051808303816000875af1158015610ae7573d6000803e3d6000fd5b505050506040513d601f19601f82011682018060405250810190610b0b9190612db5565b5060006009600084815260200190815260200160002060003373ffffffffffffffffffffffffffffffffffffffff1673ffffffffffffffffffffffffffffffffffffffff168152602001908152602001600020819055507fd8138f8a3f377c5259ca548e70e4c2de94f129f5a11036a15b69513cba2b426a3382604051610b93929190612e7d565b60405180910390a15050565b604051806080016040528087878080601f016020809104026020016040519081016040528093929190818152602001838380828437600081840152601f19601f82011690508083019250505050505050815260200185858080601f016020809104026020016040519081016040528093929190818152602001838380828437600081840152601f19601f82011690508083019250505050505050815260200183838080601f016020809104026020016040519081016040528093929190818152602001838380828437600081840152601f19601f82011690508083019250505050505050815260200160001515815250600b60003373ffffffffffffffffffffffffffffffffffffffff1673ffffffffffffffffffffffffffffffffffffffff1681526020019081526020016000206000820151816000019081610ce39190612bfa565b506020820151816001019081610cf99190612bfa565b506040820151816002019081610d0f9190612bfa565b5060608201518160030160006101000a81548160ff021916908315150217905550905050505050505050565b6000600154905090565b600060046000838152602001908152602001600020549050919050565b6060600360008373ffffffffffffffffffffffffffffffffffffffff1673ffffffffffffffffffffffffffffffffffffffff168152602001908152602001600020805480602002602001604051908101604052809291908181526020018280548015610ded57602002820191906000526020600020905b815481526020019060010190808311610dd9575b50505050509050919050565b6008600086815260200190815260200160002060003373ffffffffffffffffffffffffffffffffffffffff1673ffffffffffffffffffffffffffffffffffffffff16815260200190815260200160002060009054906101000a900460ff1615610e8e576040517f9fbfc58900000000000000000000000000000000000000000000000000000000815260040160405180910390fd5b4260026000878152602001908152602001600020600301541015610ede576040517fbeb11d3b00000000000000000000000000000000000000000000000000000000815260040160405180910390fd5b3373ffffffffffffffffffffffffffffffffffffffff166002600087815260200190815260200160002060010160009054906101000a900473ffffffffffffffffffffffffffffffffffffffff1673ffffffffffffffffffffffffffffffffffffffff1603610f79576040517fb98bbc6000000000000000000000000000000000000000000000000000000000815260040160405180910390fd5b6000600460008781526020019081526020016000205490506040518060a0016040528084848080601f016020809104026020016040519081016040528093929190818152602001838380828437600081840152601f19601f8201169050808301925050505050505081526020013373ffffffffffffffffffffffffffffffffffffffff16815260200186868080601f016020809104026020016040519081016040528093929190818152602001838380828437600081840152601f19601f820116905080830192505050505050508152602001600060038111156110605761105f612297565b5b81526020014281525060056000888152602001908152602001600020600083815260200190815260200160002060008201518160000190816110a29190612bfa565b5060208201518160010160006101000a81548173ffffffffffffffffffffffffffffffffffffffff021916908373ffffffffffffffffffffffffffffffffffffffff16021790555060408201518160020190816110ff9190612bfa565b5060608201518160030160006101000a81548160ff0219169083600381111561112b5761112a612297565b5b02179055506080820151816004015590505060046000878152602001908152602001600020600081548092919061116190612cfb565b919050555060016008600088815260200190815260200160002060003373ffffffffffffffffffffffffffffffffffffffff1673ffffffffffffffffffffffffffffffffffffffff16815260200190815260200160002060006101000a81548160ff021916908315150217905550600a60003373ffffffffffffffffffffffffffffffffffffffff1673ffffffffffffffffffffffffffffffffffffffff1681526020019081526020016000206040518060400160405280888152602001838152509080600181540180825580915050600190039060005260206000209060020201600090919091909150600082015181600001556020820151816001015550507fb278a68dfafcc5cc9a48159e0a7ca53d17d27a71d312bbbc962e8d79dcd34cfb86823360405161129593929190612ea6565b60405180910390a1505050505050565b843373ffffffffffffffffffffffffffffffffffffffff166002600083815260200190815260200160002060010160009054906101000a900473ffffffffffffffffffffffffffffffffffffffff1673ffffffffffffffffffffffffffffffffffffffff1614611341576040517f4755657900000000000000000000000000000000000000000000000000000000815260040160405180910390fd5b4260026000888152602001908152602001600020600301541115611391576040517fc390fa0400000000000000000000000000000000000000000000000000000000815260040160405180910390fd5b6002808111156113a4576113a3612297565b5b6002600088815260200190815260200160002060050160009054906101000a900460ff1660028111156113da576113d9612297565b5b03611411576040517f2d921dad00000000000000000000000000000000000000000000000000000000815260040160405180910390fd5b600460008781526020019081526020016000205483839050868690506114379190612edd565b111561146f576040517fd3c4328600000000000000000000000000000000000000000000000000000000815260040160405180910390fd5b600280600088815260200190815260200160002060050160006101000a81548160ff021916908360028111156114a8576114a7612297565b5b02179055506000806000600460008a815260200190815260200160002054905060008114806114d957508585905081145b156115d15760008054906101000a900473ffffffffffffffffffffffffffffffffffffffff1673ffffffffffffffffffffffffffffffffffffffff1663a9059cbb600260008c815260200190815260200160002060010160009054906101000a900473ffffffffffffffffffffffffffffffffffffffff16600260008d8152602001908152602001600020600201546040518363ffffffff1660e01b8152600401611585929190612e7d565b6020604051808303816000875af11580156115a4573d6000803e3d6000fd5b505050506040513d601f19601f820116820180604052508101906115c89190612db5565b50505050611b54565b8787905086869050826115e49190612f11565b036116195787879050600260008b81526020019081526020016000206002015461160e9190612f74565b9250600091506116b1565b8787905060646046600260008d8152602001908152602001600020600201546116429190612fa5565b61164c9190612f74565b6116569190612f74565b925087879050868690508261166b9190612f11565b6116759190612f11565b6064601e600260008d81526020019081526020016000206002015461169a9190612fa5565b6116a49190612f74565b6116ae9190612f74565b91505b60005b88889050811015611722576001600660008c815260200190815260200160002060008b8b858181106116e9576116e8612fe7565b5b90506020020135815260200190815260200160002060006101000a81548160ff02191690831515021790555080806001019150506116b4565b5060005b86869050811015611794576001600760008c8152602001908152602001600020600089898581811061175b5761175a612fe7565b5b90506020020135815260200190815260200160002060006101000a81548160ff0219169083151502179055508080600101915050611726565b5060005b81811015611b1057600660008b8152602001908152602001600020600082815260200190815260200160002060009054906101000a900460ff16156118da576003600560008c8152602001908152602001600020600083815260200190815260200160002060030160006101000a81548160ff0219169083600381111561182257611821612297565b5b021790555083600960008c81526020019081526020016000206000600560008e8152602001908152602001600020600085815260200190815260200160002060010160009054906101000a900473ffffffffffffffffffffffffffffffffffffffff1673ffffffffffffffffffffffffffffffffffffffff1673ffffffffffffffffffffffffffffffffffffffff16815260200190815260200160002060008282546118ce9190612edd565b92505081905550611b03565b600760008b8152602001908152602001600020600082815260200190815260200160002060009054906101000a900460ff1615611a03576001600560008c8152602001908152602001600020600083815260200190815260200160002060030160006101000a81548160ff0219169083600381111561195c5761195b612297565b5b02179055506000600960008c81526020019081526020016000206000600560008e8152602001908152602001600020600085815260200190815260200160002060010160009054906101000a900473ffffffffffffffffffffffffffffffffffffffff1673ffffffffffffffffffffffffffffffffffffffff1673ffffffffffffffffffffffffffffffffffffffff16815260200190815260200160002081905550611b02565b6002600560008c8152602001908152602001600020600083815260200190815260200160002060030160006101000a81548160ff02191690836003811115611a4e57611a4d612297565b5b021790555082600960008c81526020019081526020016000206000600560008e8152602001908152602001600020600085815260200190815260200160002060010160009054906101000a900473ffffffffffffffffffffffffffffffffffffffff1673ffffffffffffffffffffffffffffffffffffffff1673ffffffffffffffffffffffffffffffffffffffff1681526020019081526020016000206000828254611afa9190612edd565b925050819055505b5b8080600101915050611798565b507f2ae9cf9c1491e6f83533986d7898aeaa71b08af5c10eaddab515d50223bb905a8989898989604051611b48959493929190613080565b60405180910390a15050505b505050505050565b6060600a60008373ffffffffffffffffffffffffffffffffffffffff1673ffffffffffffffffffffffffffffffffffffffff168152602001908152602001600020805480602002602001604051908101604052809291908181526020016000905b82821015611c0357838290600052602060002090600202016040518060400160405290816000820154815260200160018201548152505081526020019060010190611bbd565b505050509050919050565b611c16611f13565b6005600084815260200190815260200160002060008381526020019081526020016000206040518060a0016040529081600082018054611c55906129f8565b80601f0160208091040260200160405190810160405280929190818152602001828054611c81906129f8565b8015611cce5780601f10611ca357610100808354040283529160200191611cce565b820191906000526020600020905b815481529060010190602001808311611cb157829003601f168201915b505050505081526020016001820160009054906101000a900473ffffffffffffffffffffffffffffffffffffffff1673ffffffffffffffffffffffffffffffffffffffff1673ffffffffffffffffffffffffffffffffffffffff168152602001600282018054611d3d906129f8565b80601f0160208091040260200160405190810160405280929190818152602001828054611d69906129f8565b8015611db65780601f10611d8b57610100808354040283529160200191611db6565b820191906000526020600020905b815481529060010190602001808311611d9957829003601f168201915b505050505081526020016003820160009054906101000a900460ff166003811115611de457611de3612297565b5b6003811115611df657611df5612297565b5b8152602001600482015481525050905092915050565b60006009600084815260200190815260200160002060008373ffffffffffffffffffffffffffffffffffffffff1673ffffffffffffffffffffffffffffffffffffffff16815260200190815260200160002054905092915050565b60008054906101000a900473ffffffffffffffffffffffffffffffffffffffff1681565b60405180608001604052806060815260200160608152602001606081526020016000151581525090565b6040518060c0016040528060608152602001600073ffffffffffffffffffffffffffffffffffffffff16815260200160008152602001600081526020016000815260200160006002811115611f0d57611f0c612297565b5b81525090565b6040518060a0016040528060608152602001600073ffffffffffffffffffffffffffffffffffffffff1681526020016060815260200160006003811115611f5d57611f5c612297565b5b8152602001600081525090565b600080fd5b600080fd5b600073ffffffffffffffffffffffffffffffffffffffff82169050919050565b6000611f9f82611f74565b9050919050565b611faf81611f94565b8114611fba57600080fd5b50565b600081359050611fcc81611fa6565b92915050565b600060208284031215611fe857611fe7611f6a565b5b6000611ff684828501611fbd565b91505092915050565b600081519050919050565b600082825260208201905092915050565b60005b8381101561203957808201518184015260208101905061201e565b60008484015250505050565b6000601f19601f8301169050919050565b600061206182611fff565b61206b818561200a565b935061207b81856020860161201b565b61208481612045565b840191505092915050565b60008115159050919050565b6120a48161208f565b82525050565b600060808301600083015184820360008601526120c78282612056565b915050602083015184820360208601526120e18282612056565b915050604083015184820360408601526120fb8282612056565b9150506060830151612110606086018261209b565b508091505092915050565b6000602082019050818103600083015261213581846120aa565b905092915050565b600080fd5b600080fd5b600080fd5b60008083601f8401126121625761216161213d565b5b8235905067ffffffffffffffff81111561217f5761217e612142565b5b60208301915083600182028301111561219b5761219a612147565b5b9250929050565b6000819050919050565b6121b5816121a2565b81146121c057600080fd5b50565b6000813590506121d2816121ac565b92915050565b600080600080606085870312156121f2576121f1611f6a565b5b600085013567ffffffffffffffff8111156122105761220f611f6f565b5b61221c8782880161214c565b9450945050602061222f878288016121c3565b9250506040612240878288016121c3565b91505092959194509250565b60006020828403121561226257612261611f6a565b5b6000612270848285016121c3565b91505092915050565b61228281611f94565b82525050565b612291816121a2565b82525050565b7f4e487b7100000000000000000000000000000000000000000000000000000000600052602160045260246000fd5b600381106122d7576122d6612297565b5b50565b60008190506122e8826122c6565b919050565b60006122f8826122da565b9050919050565b612308816122ed565b82525050565b600060c083016000830151848203600086015261232b8282612056565b91505060208301516123406020860182612279565b5060408301516123536040860182612288565b5060608301516123666060860182612288565b5060808301516123796080860182612288565b5060a083015161238c60a08601826122ff565b508091505092915050565b600060208201905081810360008301526123b1818461230e565b905092915050565b600080600080600080606087890312156123d6576123d5611f6a565b5b600087013567ffffffffffffffff8111156123f4576123f3611f6f565b5b61240089828a0161214c565b9650965050602087013567ffffffffffffffff81111561242357612422611f6f565b5b61242f89828a0161214c565b9450945050604087013567ffffffffffffffff81111561245257612451611f6f565b5b61245e89828a0161214c565b92509250509295509295509295565b612476816121a2565b82525050565b6000602082019050612491600083018461246d565b92915050565b600081519050919050565b600082825260208201905092915050565b6000819050602082019050919050565b60006124cf8383612288565b60208301905092915050565b6000602082019050919050565b60006124f382612497565b6124fd81856124a2565b9350612508836124b3565b8060005b8381101561253957815161252088826124c3565b975061252b836124db565b92505060018101905061250c565b5085935050505092915050565b6000602082019050818103600083015261256081846124e8565b905092915050565b60008060008060006060868803121561258457612583611f6a565b5b6000612592888289016121c3565b955050602086013567ffffffffffffffff8111156125b3576125b2611f6f565b5b6125bf8882890161214c565b9450945050604086013567ffffffffffffffff8111156125e2576125e1611f6f565b5b6125ee8882890161214c565b92509250509295509295909350565b60008083601f8401126126135761261261213d565b5b8235905067ffffffffffffffff8111156126305761262f612142565b5b60208301915083602082028301111561264c5761264b612147565b5b9250929050565b60008060008060006060868803121561266f5761266e611f6a565b5b600061267d888289016121c3565b955050602086013567ffffffffffffffff81111561269e5761269d611f6f565b5b6126aa888289016125fd565b9450945050604086013567ffffffffffffffff8111156126cd576126cc611f6f565b5b6126d9888289016125fd565b92509250509295509295909350565b600081519050919050565b600082825260208201905092915050565b6000819050602082019050919050565b60408201600082015161272a6000850182612288565b50602082015161273d6020850182612288565b50505050565b600061274f8383612714565b60408301905092915050565b6000602082019050919050565b6000612773826126e8565b61277d81856126f3565b935061278883612704565b8060005b838110156127b95781516127a08882612743565b97506127ab8361275b565b92505060018101905061278c565b5085935050505092915050565b600060208201905081810360008301526127e08184612768565b905092915050565b600080604083850312156127ff576127fe611f6a565b5b600061280d858286016121c3565b925050602061281e858286016121c3565b9150509250929050565b6004811061283957612838612297565b5b50565b600081905061284a82612828565b919050565b600061285a8261283c565b9050919050565b61286a8161284f565b82525050565b600060a083016000830151848203600086015261288d8282612056565b91505060208301516128a26020860182612279565b50604083015184820360408601526128ba8282612056565b91505060608301516128cf6060860182612861565b5060808301516128e26080860182612288565b508091505092915050565b600060208201905081810360008301526129078184612870565b905092915050565b6000806040838503121561292657612925611f6a565b5b6000612934858286016121c3565b925050602061294585828601611fbd565b9150509250929050565b6000819050919050565b600061297461296f61296a84611f74565b61294f565b611f74565b9050919050565b600061298682612959565b9050919050565b60006129988261297b565b9050919050565b6129a88161298d565b82525050565b60006020820190506129c3600083018461299f565b92915050565b7f4e487b7100000000000000000000000000000000000000000000000000000000600052602260045260246000fd5b60006002820490506001821680612a1057607f821691505b602082108103612a2357612a226129c9565b5b50919050565b7f4e487b7100000000000000000000000000000000000000000000000000000000600052604160045260246000fd5b60008190508160005260206000209050919050565b60006020601f8301049050919050565b600082821b905092915050565b600060088302612aba7fffffffffffffffffffffffffffffffffffffffffffffffffffffffffffffffff82612a7d565b612ac48683612a7d565b95508019841693508086168417925050509392505050565b6000612af7612af2612aed846121a2565b61294f565b6121a2565b9050919050565b6000819050919050565b612b1183612adc565b612b25612b1d82612afe565b848454612a8a565b825550505050565b600090565b612b3a612b2d565b612b45818484612b08565b505050565b5b81811015612b6957612b5e600082612b32565b600181019050612b4b565b5050565b601f821115612bae57612b7f81612a58565b612b8884612a6d565b81016020851015612b97578190505b612bab612ba385612a6d565b830182612b4a565b50505b505050565b600082821c905092915050565b6000612bd160001984600802612bb3565b1980831691505092915050565b6000612bea8383612bc0565b9150826002028217905092915050565b612c0382611fff565b67ffffffffffffffff811115612c1c57612c1b612a29565b5b612c2682546129f8565b612c31828285612b6d565b600060209050601f831160018114612c645760008415612c52578287015190505b612c5c8582612bde565b865550612cc4565b601f198416612c7286612a58565b60005b82811015612c9a57848901518255600182019150602085019450602081019050612c75565b86831015612cb75784890151612cb3601f891682612bc0565b8355505b6001600288020188555050505b505050505050565b7f4e487b7100000000000000000000000000000000000000000000000000000000600052601160045260246000fd5b6000612d06826121a2565b91507fffffffffffffffffffffffffffffffffffffffffffffffffffffffffffffffff8203612d3857612d37612ccc565b5b600182019050919050565b612d4c81611f94565b82525050565b6000606082019050612d676000830186612d43565b612d746020830185612d43565b612d81604083018461246d565b949350505050565b612d928161208f565b8114612d9d57600080fd5b50565b600081519050612daf81612d89565b92915050565b600060208284031215612dcb57612dca611f6a565b5b6000612dd984828501612da0565b91505092915050565b600082825260208201905092915050565b82818337600083830152505050565b6000612e0e8385612de2565b9350612e1b838584612df3565b612e2483612045565b840190509392505050565b6000608082019050612e44600083018861246d565b8181036020830152612e57818688612e02565b9050612e66604083018561246d565b612e73606083018461246d565b9695505050505050565b6000604082019050612e926000830185612d43565b612e9f602083018461246d565b9392505050565b6000606082019050612ebb600083018661246d565b612ec8602083018561246d565b612ed56040830184612d43565b949350505050565b6000612ee8826121a2565b9150612ef3836121a2565b9250828201905080821115612f0b57612f0a612ccc565b5b92915050565b6000612f1c826121a2565b9150612f27836121a2565b9250828203905081811115612f3f57612f3e612ccc565b5b92915050565b7f4e487b7100000000000000000000000000000000000000000000000000000000600052601260045260246000fd5b6000612f7f826121a2565b9150612f8a836121a2565b925082612f9a57612f99612f45565b5b828204905092915050565b6000612fb0826121a2565b9150612fbb836121a2565b9250828202612fc9816121a2565b91508282048414831517612fe057612fdf612ccc565b5b5092915050565b7f4e487b7100000000000000000000000000000000000000000000000000000000600052603260045260246000fd5b600080fd5b82818337505050565b600061303083856124a2565b93507f07ffffffffffffffffffffffffffffffffffffffffffffffffffffffffffffff83111561306357613062613016565b5b60208302925061307483858461301b565b82840190509392505050565b6000606082019050613095600083018861246d565b81810360208301526130a8818688613024565b905081810360408301526130bd818486613024565b9050969550505050505056fea26469706673582212204efb378945c717bcb3f51c7e321be1768097638cb49f97ecfa03a6b8aec7ecc664736f6c634300081c0033",
  "linkReferences": {},
  "deployedLinkReferences": {}
}