{
  "_format": "hh3-artifact-1",
  "contractName": "Escrow",
  "sourceName": "contracts/Escrow.sol",
  "abi": [
    {
      "inputs": [
        {
          "internalType": "address",
          "name": "_token",
          "type": "address"
        }
      ],
      "stateMutability": "nonpayable",
      "type": "constructor"
    },
    {
      "inputs": [],
      "name": "AlreadySubmitted",
      "type": "error"
    },
    {
      "inputs": [],
      "name": "ChallengeAlreadyClosed",
      "type": "error"
    },
    {
      "inputs": [],
      "name": "ChallengeNotClosed",
      "type": "error"
    },
    {
      "inputs": [],
      "name": "ChallengeNotPending",
      "type": "error"
    },
    {
      "inputs": [],
      "name": "ChallengeNotRefunded",
      "type": "error"
    },
    {
      "inputs": [],
      "name": "ChallengeNotValidating",
      "type": "error"
    },
    {
      "inputs": [],
      "name": "InsufficientBalance",
      "type": "error"
    },
    {
      "inputs": [],
      "name": "OnlyAdmin",
      "type": "error"
    },
    {
      "anonymous": false,
      "inputs": [
        {
          "indexed": false,
          "internalType": "uint256",
          "name": "challengeId",
          "type": "uint256"
        },
        {
          "indexed": false,
          "internalType": "string",
          "name": "metadataURI",
          "type": "string"
        },
        {
          "indexed": false,
          "internalType": "uint256",
          "name": "poolSize",
          "type": "uint256"
        },
        {
          "indexed": false,
          "internalType": "uint256",
          "name": "deadline",
          "type": "uint256"
        }
      ],
      "name": "ChallengeCreated",
      "type": "event"
    },
    {
      "anonymous": false,
      "inputs": [
        {
          "indexed": false,
          "internalType": "uint256",
          "name": "challengeId",
          "type": "uint256"
        },
        {
          "indexed": false,
          "internalType": "address",
          "name": "user",
          "type": "address"
        },
        {
          "indexed": false,
          "internalType": "uint256",
          "name": "amount",
          "type": "uint256"
        }
      ],
      "name": "ChallengeFundsWithdrawn",
      "type": "event"
    },
    {
      "anonymous": false,
      "inputs": [
        {
          "indexed": false,
          "internalType": "uint256",
          "name": "challengeId",
          "type": "uint256"
        },
        {
          "indexed": false,
          "internalType": "address[]",
          "name": "winners",
          "type": "address[]"
        }
      ],
      "name": "ChallengeResolved",
      "type": "event"
    },
    {
      "anonymous": false,
      "inputs": [
        {
          "indexed": false,
          "internalType": "address",
          "name": "from",
          "type": "address"
        },
        {
          "indexed": false,
          "internalType": "address",
          "name": "to",
          "type": "address"
        },
        {
          "indexed": false,
          "internalType": "uint256",
          "name": "amount",
          "type": "uint256"
        }
      ],
      "name": "FundsWithdrawn",
      "type": "event"
    },
    {
      "anonymous": false,
      "inputs": [
        {
          "indexed": false,
          "internalType": "uint256",
          "name": "challengeId",
          "type": "uint256"
        },
        {
          "indexed": false,
          "internalType": "uint256",
          "name": "submissionId",
          "type": "uint256"
        },
        {
          "indexed": false,
          "internalType": "address",
          "name": "submitter",
          "type": "address"
        }
      ],
      "name": "SubmissionCreated",
      "type": "event"
    },
    {
      "inputs": [
        {
          "internalType": "address",
          "name": "",
          "type": "address"
        },
        {
          "internalType": "uint256",
          "name": "",
          "type": "uint256"
        }
      ],
      "name": "adminChallenges",
      "outputs": [
        {
          "internalType": "uint256",
          "name": "",
          "type": "uint256"
        }
      ],
      "stateMutability": "view",
      "type": "function"
    },
    {
      "inputs": [
        {
          "internalType": "address",
          "name": "",
          "type": "address"
        }
      ],
      "name": "balances",
      "outputs": [
        {
          "internalType": "uint256",
          "name": "",
          "type": "uint256"
        }
      ],
      "stateMutability": "view",
      "type": "function"
    },
    {
      "inputs": [
        {
          "internalType": "uint256",
          "name": "",
          "type": "uint256"
        }
      ],
      "name": "challenges",
      "outputs": [
        {
          "internalType": "string",
          "name": "metadataUri",
          "type": "string"
        },
        {
          "internalType": "address",
          "name": "admin",
          "type": "address"
        },
        {
          "internalType": "uint256",
          "name": "poolSize",
          "type": "uint256"
        },
        {
          "internalType": "uint256",
          "name": "endsAt",
          "type": "uint256"
        },
        {
          "internalType": "uint256",
          "name": "createdAt",
          "type": "uint256"
        },
        {
          "internalType": "enum IEscrowStructs.ChallengeStatus",
          "name": "status",
          "type": "uint8"
        }
      ],
      "stateMutability": "view",
      "type": "function"
    },
    {
      "inputs": [],
      "name": "challengesCount",
      "outputs": [
        {
          "internalType": "uint256",
          "name": "",
          "type": "uint256"
        }
      ],
      "stateMutability": "view",
      "type": "function"
    },
    {
      "inputs": [
        {
          "internalType": "string",
          "name": "metadataURI",
          "type": "string"
        },
        {
          "internalType": "uint256",
          "name": "poolSize",
          "type": "uint256"
        },
        {
          "internalType": "uint256",
          "name": "deadline",
          "type": "uint256"
        }
      ],
      "name": "createChallenge",
      "outputs": [],
      "stateMutability": "nonpayable",
      "type": "function"
    },
    {
      "inputs": [
        {
          "internalType": "uint256",
          "name": "challengeId",
          "type": "uint256"
        },
        {
          "internalType": "string",
          "name": "contact",
          "type": "string"
        },
        {
          "internalType": "string",
          "name": "submissionURI",
          "type": "string"
        }
      ],
      "name": "createSubmission",
      "outputs": [],
      "stateMutability": "nonpayable",
      "type": "function"
    },
    {
      "inputs": [
        {
          "internalType": "address",
          "name": "admin",
          "type": "address"
        }
      ],
      "name": "getAdminChallenges",
      "outputs": [
        {
          "internalType": "uint256[]",
          "name": "",
          "type": "uint256[]"
        }
      ],
      "stateMutability": "view",
      "type": "function"
    },
    {
      "inputs": [
        {
          "internalType": "address",
          "name": "account",
          "type": "address"
        }
      ],
      "name": "getBalance",
      "outputs": [
        {
          "internalType": "uint256",
          "name": "",
          "type": "uint256"
        }
      ],
      "stateMutability": "view",
      "type": "function"
    },
    {
      "inputs": [
        {
          "internalType": "uint256",
          "name": "challengeId",
          "type": "uint256"
        }
      ],
      "name": "getChallenge",
      "outputs": [
        {
          "components": [
            {
              "internalType": "string",
              "name": "metadataUri",
              "type": "string"
            },
            {
              "internalType": "address",
              "name": "admin",
              "type": "address"
            },
            {
              "internalType": "uint256",
              "name": "poolSize",
              "type": "uint256"
            },
            {
              "internalType": "uint256",
              "name": "endsAt",
              "type": "uint256"
            },
            {
              "internalType": "uint256",
              "name": "createdAt",
              "type": "uint256"
            },
            {
              "internalType": "enum IEscrowStructs.ChallengeStatus",
              "name": "status",
              "type": "uint8"
            }
          ],
          "internalType": "struct IEscrowStructs.Challenge",
          "name": "",
          "type": "tuple"
        }
      ],
      "stateMutability": "view",
      "type": "function"
    },
    {
      "inputs": [
        {
          "internalType": "uint256",
          "name": "startIndex",
          "type": "uint256"
        },
        {
          "internalType": "uint256",
          "name": "count",
          "type": "uint256"
        }
      ],
      "name": "getChallenges",
      "outputs": [
        {
          "components": [
            {
              "internalType": "string",
              "name": "metadataUri",
              "type": "string"
            },
            {
              "internalType": "address",
              "name": "admin",
              "type": "address"
            },
            {
              "internalType": "uint256",
              "name": "poolSize",
              "type": "uint256"
            },
            {
              "internalType": "uint256",
              "name": "endsAt",
              "type": "uint256"
            },
            {
              "internalType": "uint256",
              "name": "createdAt",
              "type": "uint256"
            },
            {
              "internalType": "enum IEscrowStructs.ChallengeStatus",
              "name": "status",
              "type": "uint8"
            }
          ],
          "internalType": "struct IEscrowStructs.Challenge[]",
          "name": "",
          "type": "tuple[]"
        }
      ],
      "stateMutability": "view",
      "type": "function"
    },
    {
      "inputs": [],
      "name": "getChallengesCount",
      "outputs": [
        {
          "internalType": "uint256",
          "name": "",
          "type": "uint256"
        }
      ],
      "stateMutability": "view",
      "type": "function"
    },
    {
      "inputs": [
        {
          "internalType": "uint256",
          "name": "challengeId",
          "type": "uint256"
        },
        {
          "internalType": "uint256",
          "name": "submissionId",
          "type": "uint256"
        }
      ],
      "name": "getSubmission",
      "outputs": [
        {
          "components": [
            {
              "internalType": "string",
              "name": "metadataUri",
              "type": "string"
            },
            {
              "internalType": "address",
              "name": "creator",
              "type": "address"
            },
            {
              "internalType": "string",
              "name": "creatorContact",
              "type": "string"
            },
            {
              "internalType": "enum IEscrowStructs.SubmissionStatus",
              "name": "status",
              "type": "uint8"
            },
            {
              "internalType": "uint256",
              "name": "createdAt",
              "type": "uint256"
            }
          ],
          "internalType": "struct IEscrowStructs.Submission",
          "name": "",
          "type": "tuple"
        }
      ],
      "stateMutability": "view",
      "type": "function"
    },
    {
      "inputs": [
        {
          "internalType": "uint256",
          "name": "challengeId",
          "type": "uint256"
        },
        {
          "internalType": "uint256",
          "name": "startIndex",
          "type": "uint256"
        },
        {
          "internalType": "uint256",
          "name": "count",
          "type": "uint256"
        }
      ],
      "name": "getSubmissions",
      "outputs": [
        {
          "components": [
            {
              "internalType": "string",
              "name": "metadataUri",
              "type": "string"
            },
            {
              "internalType": "address",
              "name": "creator",
              "type": "address"
            },
            {
              "internalType": "string",
              "name": "creatorContact",
              "type": "string"
            },
            {
              "internalType": "enum IEscrowStructs.SubmissionStatus",
              "name": "status",
              "type": "uint8"
            },
            {
              "internalType": "uint256",
              "name": "createdAt",
              "type": "uint256"
            }
          ],
          "internalType": "struct IEscrowStructs.Submission[]",
          "name": "",
          "type": "tuple[]"
        }
      ],
      "stateMutability": "view",
      "type": "function"
    },
    {
      "inputs": [
        {
          "internalType": "uint256",
          "name": "challengeId",
          "type": "uint256"
        }
      ],
      "name": "getSubmissionsCount",
      "outputs": [
        {
          "internalType": "uint256",
          "name": "",
          "type": "uint256"
        }
      ],
      "stateMutability": "view",
      "type": "function"
    },
    {
      "inputs": [
        {
          "internalType": "uint256",
          "name": "challengeId",
          "type": "uint256"
        },
        {
          "internalType": "uint256[]",
          "name": "awardedSubmissions",
          "type": "uint256[]"
        },
        {
          "internalType": "uint256[]",
          "name": "ineligibleSubmissions",
          "type": "uint256[]"
        }
      ],
      "name": "resolveChallenge",
      "outputs": [],
      "stateMutability": "nonpayable",
      "type": "function"
    },
    {
      "inputs": [
        {
          "internalType": "uint256",
          "name": "",
          "type": "uint256"
        },
        {
          "internalType": "uint256",
          "name": "",
          "type": "uint256"
        }
      ],
      "name": "submissions",
      "outputs": [
        {
          "internalType": "string",
          "name": "metadataUri",
          "type": "string"
        },
        {
          "internalType": "address",
          "name": "creator",
          "type": "address"
        },
        {
          "internalType": "string",
          "name": "creatorContact",
          "type": "string"
        },
        {
          "internalType": "enum IEscrowStructs.SubmissionStatus",
          "name": "status",
          "type": "uint8"
        },
        {
          "internalType": "uint256",
          "name": "createdAt",
          "type": "uint256"
        }
      ],
      "stateMutability": "view",
      "type": "function"
    },
    {
      "inputs": [
        {
          "internalType": "uint256",
          "name": "",
          "type": "uint256"
        }
      ],
      "name": "submissionsCount",
      "outputs": [
        {
          "internalType": "uint256",
          "name": "",
          "type": "uint256"
        }
      ],
      "stateMutability": "view",
      "type": "function"
    },
    {
      "inputs": [
        {
          "internalType": "uint256",
          "name": "",
          "type": "uint256"
        },
        {
          "internalType": "address",
          "name": "",
          "type": "address"
        }
      ],
      "name": "submitted",
      "outputs": [
        {
          "internalType": "bool",
          "name": "",
          "type": "bool"
        }
      ],
      "stateMutability": "view",
      "type": "function"
    },
    {
      "inputs": [],
      "name": "token",
      "outputs": [
        {
          "internalType": "contract IERC20",
          "name": "",
          "type": "address"
        }
      ],
      "stateMutability": "view",
      "type": "function"
    },
    {
      "inputs": [
        {
          "internalType": "uint256",
          "name": "amount",
          "type": "uint256"
        },
        {
          "internalType": "address",
          "name": "to",
          "type": "address"
        }
      ],
      "name": "withdraw",
      "outputs": [],
      "stateMutability": "nonpayable",
      "type": "function"
    }
  ],
  "bytecode": "0x6080604052348015600e575f5ffd5b506040516120d63803806120d6833981016040819052602b91604e565b5f80546001600160a01b0319166001600160a01b03929092169190911790556079565b5f60208284031215605d575f5ffd5b81516001600160a01b03811681146072575f5ffd5b9392505050565b612050806100865f395ff3fe608060405234801561000f575f5ffd5b5060043610610126575f3560e01c80638cec0ba0116100a9578063bcca8d971161006e578063bcca8d97146102d6578063de9acca7146102f6578063e5b281fe14610316578063f8b2cb4f14610336578063fc0c546a1461035e575f5ffd5b80638cec0ba01461024c5780638f1d37761461025f57806392a761a914610284578063b3f7c3aa14610297578063b7ed7071146102b6575f5ffd5b806344dea671116100ef57806344dea671146101bb5780635c2cc332146101c45780635c422295146101cc5780636599b25b146101eb57806369c1fc2514610228575f5ffd5b8062f714ce1461012a5780631aaaac931461013f5780631bdd4b74146101525780631e89a5391461017b57806327e235e31461019c575b5f5ffd5b61013d6101383660046117f9565b610388565b005b61013d61014d366004611868565b61049b565b6101656101603660046118b5565b610610565b6040516101729190611982565b60405180910390f35b61018e61018936600461199b565b610728565b604051908152602001610172565b61018e6101aa3660046119c3565b60046020525f908152604090205481565b61018e60015481565b60015461018e565b61018e6101da3660046118b5565b5f9081526005602052604090205490565b6102186101f93660046117f9565b600760209081525f928352604080842090915290825290205460ff1681565b6040519015158152602001610172565b61023b6102363660046119dc565b610753565b604051610172959493929190611a0c565b61013d61025a366004611a5f565b6108aa565b61027261026d3660046118b5565b610aa1565b60405161017296959493929190611ad8565b61013d610292366004611b69565b610b68565b61018e6102a53660046118b5565b60056020525f908152604090205481565b6102c96102c43660046119dc565b611113565b6040516101729190611c3a565b6102e96102e43660046119dc565b6112ba565b6040516101729190611c4c565b6103096103043660046119c3565b611482565b6040516101729190611caf565b610329610324366004611cf1565b6114eb565b6040516101729190611d1a565b61018e6103443660046119c3565b6001600160a01b03165f9081526004602052604090205490565b5f54610370906001600160a01b031681565b6040516001600160a01b039091168152602001610172565b335f908152600460205260409020548211156103b757604051631e9acf1760e31b815260040160405180910390fd5b5f5460405163a9059cbb60e01b81526001600160a01b038381166004830152602482018590529091169063a9059cbb906044016020604051808303815f875af1158015610406573d5f5f3e3d5ffd5b505050506040513d601f19601f8201168201806040525081019061042a9190611d71565b50335f9081526004602052604081208054849290610449908490611da4565b9091555050604080513381526001600160a01b03831660208201529081018390527fa92ff919b850e4909ab2261d907ef955f11bc1716733a6cbece38d163a69af8a9060600160405180910390a15050565b6040518060c0016040528085858080601f0160208091040260200160405190810160405280939291908181526020018383808284375f920182905250938552505033602084015250604082018590526060820184905242608083015260a0909101526001545f9081526002602052604090208151819061051b9082611e4f565b506020820151600182810180546001600160a01b0319166001600160a01b039093169290921790915560408301516002830155606083015160038301556080830151600483015560a08301516005830180549192909160ff1916908381811115610587576105876118fa565b021790555050335f9081526003602090815260408083206001805482548083018455928652939094200191909155905490517f5ada7bcb61317fcef34c60f3ed6612f30405f948126c579af585b4608de59bbe92506105ee91908790879087908790611f0a565b60405180910390a160018054905f61060583611f4f565b919050555050505050565b61061861174e565b5f8281526002602052604090819020815160c0810190925280548290829061063f90611dcb565b80601f016020809104026020016040519081016040528092919081815260200182805461066b90611dcb565b80156106b65780601f1061068d576101008083540402835291602001916106b6565b820191905f5260205f20905b81548152906001019060200180831161069957829003601f168201915b50505091835250506001828101546001600160a01b03166020830152600283015460408301526003830154606083015260048301546080830152600583015460a09092019160ff169081111561070e5761070e6118fa565b600181111561071f5761071f6118fa565b90525092915050565b6003602052815f5260405f208181548110610741575f80fd5b905f5260205f20015f91509150505481565b600660209081525f928352604080842090915290825290208054819061077890611dcb565b80601f01602080910402602001604051908101604052809291908181526020018280546107a490611dcb565b80156107ef5780601f106107c6576101008083540402835291602001916107ef565b820191905f5260205f20905b8154815290600101906020018083116107d257829003601f168201915b505050600184015460028501805494956001600160a01b0390921694919350915061081990611dcb565b80601f016020809104026020016040519081016040528092919081815260200182805461084590611dcb565b80156108905780601f1061086757610100808354040283529160200191610890565b820191905f5260205f20905b81548152906001019060200180831161087357829003601f168201915b505050506003830154600490930154919260ff1691905085565b5f85815260076020908152604080832033845290915290205460ff16156108e457604051639fbfc58960e01b815260040160405180910390fd5b5f8581526005602090815260409182902054825160c0601f86018490049093028101830190935260a0830184815290929182919086908690819085018382808284375f920191909152505050908252503360208083019190915260408051601f890183900483028101830182528881529201919088908890819084018382808284375f92018290525093855250505060208083018290524260409384015289825260068152828220858352905220815181906109a09082611e4f565b5060208201516001820180546001600160a01b0319166001600160a01b03909216919091179055604082015160028201906109db9082611e4f565b506060820151816003015f6101000a81548160ff02191690836003811115610a0557610a056118fa565b0217905550608091909101516004909101555f868152600560205260408120805491610a3083611f4f565b90915550505f8681526007602090815260408083203380855290835292819020805460ff1916600117905580518481529182018990528101919091527fb278a68dfafcc5cc9a48159e0a7ca53d17d27a71d312bbbc962e8d79dcd34cfb9060600160405180910390a1505050505050565b60026020525f9081526040902080548190610abb90611dcb565b80601f0160208091040260200160405190810160405280929190818152602001828054610ae790611dcb565b8015610b325780601f10610b0957610100808354040283529160200191610b32565b820191905f5260205f20905b815481529060010190602001808311610b1557829003601f168201915b505050600184015460028501546003860154600487015460059097015495966001600160a01b0390931695919450925060ff1686565b5f8581526002602052604090206001015485906001600160a01b03163314610ba357604051634755657960e01b815260040160405180910390fd5b5f86815260026020526040902060030154421015610bd4576040516330e43e8160e21b815260040160405180910390fd5b5f868152600260205260408120600501805460ff191660011790558467ffffffffffffffff811115610c0857610c08611db7565b604051908082528060200260200182016040528015610c31578160200160208202803683370190505b5090505f5b85811015610d18575f888152600660205260408120600391898985818110610c6057610c60611f67565b9050602002013581526020019081526020015f206003015f6101000a81548160ff02191690836003811115610c9757610c976118fa565b02179055505f88815260066020526040812090888884818110610cbc57610cbc611f67565b9050602002013581526020019081526020015f206001015f9054906101000a90046001600160a01b0316828281518110610cf857610cf8611f67565b6001600160a01b0390921660209283029190910190910152600101610c36565b505f5b83811015610d89575f888152600660205260408120600191878785818110610d4557610d45611f67565b9050602002013581526020019081526020015f206003015f6101000a81548160ff02191690836003811115610d7c57610d7c6118fa565b0217905550600101610d1b565b505f878152600560205260408120548490610da5908890611da4565b610daf9190611da4565b67ffffffffffffffff811115610dc757610dc7611db7565b604051908082528060200260200182016040528015610df0578160200160208202803683370190505b5090505f805b5f8a815260056020526040902054811015610f26575f80805b8a811015610e47578b8b82818110610e2957610e29611f67565b905060200201358403610e3f5760019250610e47565b600101610e0f565b505f5b88811015610e8257898982818110610e6457610e64611f67565b905060200201358403610e7a5760019150610e82565b600101610e4a565b5081158015610e8f575080155b15610f1c575f8c815260066020908152604080832086845290915290206001015485516001600160a01b0390911690869086908110610ed057610ed0611f67565b6001600160a01b039092166020928302919091019091015283610ef281611f4f565b5f8e81526006602090815260408083208884529091529020600301805460ff191660021790559450505b5050600101610df6565b505f8981526002602081905260409091200154825115611058575f6064610f4e836046611f7b565b610f589190611f92565b90505f610f658284611da4565b90505f865183610f759190611f92565b90505f5b8751811015610fda578160045f8a8481518110610f9857610f98611f67565b60200260200101516001600160a01b03166001600160a01b031681526020019081526020015f205f828254610fcd9190611fb1565b9091555050600101610f79565b505f865183610fe99190611f92565b90505f5b875181101561104e578160045f8a848151811061100c5761100c611f67565b60200260200101516001600160a01b03166001600160a01b031681526020019081526020015f205f8282546110419190611fb1565b9091555050600101610fed565b50505050506110ce565b5f8451826110669190611f92565b90505f5b85518110156110cb578160045f88848151811061108957611089611f67565b60200260200101516001600160a01b03166001600160a01b031681526020019081526020015f205f8282546110be9190611fb1565b909155505060010161106a565b50505b7f55466064f12f512a405dacafe63889da6cc9610752b4f1ec2137076ad52a78fc8a856040516110ff929190611fc4565b60405180910390a150505050505050505050565b61111b611798565b5f83815260066020908152604080832085845290915290819020815160a0810190925280548290829061114d90611dcb565b80601f016020809104026020016040519081016040528092919081815260200182805461117990611dcb565b80156111c45780601f1061119b576101008083540402835291602001916111c4565b820191905f5260205f20905b8154815290600101906020018083116111a757829003601f168201915b505050918352505060018201546001600160a01b031660208201526002820180546040909201916111f490611dcb565b80601f016020809104026020016040519081016040528092919081815260200182805461122090611dcb565b801561126b5780601f106112425761010080835404028352916020019161126b565b820191905f5260205f20905b81548152906001019060200180831161124e57829003601f168201915b505050918352505060038281015460209092019160ff1690811115611292576112926118fa565b60038111156112a3576112a36118fa565b815260200160048201548152505090505b92915050565b60605f6112c78385611fb1565b90506001548111156112d857506001545b5f6112e38583611da4565b67ffffffffffffffff8111156112fb576112fb611db7565b60405190808252806020026020018201604052801561133457816020015b61132161174e565b8152602001906001900390816113195790505b509050845b82811015611479575f8181526002602052604090819020815160c0810190925280548290829061136890611dcb565b80601f016020809104026020016040519081016040528092919081815260200182805461139490611dcb565b80156113df5780601f106113b6576101008083540402835291602001916113df565b820191905f5260205f20905b8154815290600101906020018083116113c257829003601f168201915b50505091835250506001828101546001600160a01b03166020830152600283015460408301526003830154606083015260048301546080830152600583015460a09092019160ff1690811115611437576114376118fa565b6001811115611448576114486118fa565b905250826114568884611da4565b8151811061146657611466611f67565b6020908102919091010152600101611339565b50949350505050565b6001600160a01b0381165f908152600360209081526040918290208054835181840281018401909452808452606093928301828280156114df57602002820191905f5260205f20905b8154815260200190600101908083116114cb575b50505050509050919050565b60605f6114f88385611fb1565b5f8681526005602052604090205490915081111561152057505f848152600560205260409020545b5f61152b8583611da4565b67ffffffffffffffff81111561154357611543611db7565b60405190808252806020026020018201604052801561157c57816020015b611569611798565b8152602001906001900390816115615790505b509050845b82811015611744575f87815260066020908152604080832084845290915290819020815160a081019092528054829082906115bb90611dcb565b80601f01602080910402602001604051908101604052809291908181526020018280546115e790611dcb565b80156116325780601f1061160957610100808354040283529160200191611632565b820191905f5260205f20905b81548152906001019060200180831161161557829003601f168201915b505050918352505060018201546001600160a01b0316602082015260028201805460409092019161166290611dcb565b80601f016020809104026020016040519081016040528092919081815260200182805461168e90611dcb565b80156116d95780601f106116b0576101008083540402835291602001916116d9565b820191905f5260205f20905b8154815290600101906020018083116116bc57829003601f168201915b505050918352505060038281015460209092019160ff1690811115611700576117006118fa565b6003811115611711576117116118fa565b815260200160048201548152505082828151811061173157611731611f67565b6020908102919091010152600101611581565b5095945050505050565b6040518060c00160405280606081526020015f6001600160a01b031681526020015f81526020015f81526020015f81526020015f6001811115611793576117936118fa565b905290565b6040518060a00160405280606081526020015f6001600160a01b03168152602001606081526020015f60038111156117d2576117d26118fa565b81526020015f81525090565b80356001600160a01b03811681146117f4575f5ffd5b919050565b5f5f6040838503121561180a575f5ffd5b8235915061181a602084016117de565b90509250929050565b5f5f83601f840112611833575f5ffd5b50813567ffffffffffffffff81111561184a575f5ffd5b602083019150836020828501011115611861575f5ffd5b9250929050565b5f5f5f5f6060858703121561187b575f5ffd5b843567ffffffffffffffff811115611891575f5ffd5b61189d87828801611823565b90989097506020870135966040013595509350505050565b5f602082840312156118c5575f5ffd5b5035919050565b5f81518084528060208401602086015e5f602082860101526020601f19601f83011685010191505092915050565b634e487b7160e01b5f52602160045260245ffd5b6002811061191e5761191e6118fa565b9052565b5f815160c0845261193660c08501826118cc565b905060018060a01b03602084015116602085015260408301516040850152606083015160608501526080830151608085015260a083015161197a60a086018261190e565b509392505050565b602081525f6119946020830184611922565b9392505050565b5f5f604083850312156119ac575f5ffd5b6119b5836117de565b946020939093013593505050565b5f602082840312156119d3575f5ffd5b611994826117de565b5f5f604083850312156119ed575f5ffd5b50508035926020909101359150565b6004811061191e5761191e6118fa565b60a081525f611a1e60a08301886118cc565b6001600160a01b03871660208401528281036040840152611a3f81876118cc565b915050611a4f60608301856119fc565b8260808301529695505050505050565b5f5f5f5f5f60608688031215611a73575f5ffd5b85359450602086013567ffffffffffffffff811115611a90575f5ffd5b611a9c88828901611823565b909550935050604086013567ffffffffffffffff811115611abb575f5ffd5b611ac788828901611823565b969995985093965092949392505050565b60c081525f611aea60c08301896118cc565b6001600160a01b03881660208401526040830187905260608301869052608083018590529050611b1d60a083018461190e565b979650505050505050565b5f5f83601f840112611b38575f5ffd5b50813567ffffffffffffffff811115611b4f575f5ffd5b6020830191508360208260051b8501011115611861575f5ffd5b5f5f5f5f5f60608688031215611b7d575f5ffd5b85359450602086013567ffffffffffffffff811115611b9a575f5ffd5b611ba688828901611b28565b909550935050604086013567ffffffffffffffff811115611bc5575f5ffd5b611ac788828901611b28565b5f815160a08452611be560a08501826118cc565b905060018060a01b03602084015116602085015260408301518482036040860152611c1082826118cc565b9150506060830151611c2560608601826119fc565b50608083015160808501528091505092915050565b602081525f6119946020830184611bd1565b5f602082016020835280845180835260408501915060408160051b8601019250602086015f5b82811015611ca357603f19878603018452611c8e858351611922565b94506020938401939190910190600101611c72565b50929695505050505050565b602080825282518282018190525f918401906040840190835b81811015611ce6578351835260209384019390920191600101611cc8565b509095945050505050565b5f5f5f60608486031215611d03575f5ffd5b505081359360208301359350604090920135919050565b5f602082016020835280845180835260408501915060408160051b8601019250602086015f5b82811015611ca357603f19878603018452611d5c858351611bd1565b94506020938401939190910190600101611d40565b5f60208284031215611d81575f5ffd5b81518015158114611994575f5ffd5b634e487b7160e01b5f52601160045260245ffd5b818103818111156112b4576112b4611d90565b634e487b7160e01b5f52604160045260245ffd5b600181811c90821680611ddf57607f821691505b602082108103611dfd57634e487b7160e01b5f52602260045260245ffd5b50919050565b601f821115611e4a57805f5260205f20601f840160051c81016020851015611e285750805b601f840160051c820191505b81811015611e47575f8155600101611e34565b50505b505050565b815167ffffffffffffffff811115611e6957611e69611db7565b611e7d81611e778454611dcb565b84611e03565b6020601f821160018114611eaf575f8315611e985750848201515b5f19600385901b1c1916600184901b178455611e47565b5f84815260208120601f198516915b82811015611ede5787850151825560209485019460019092019101611ebe565b5084821015611efb57868401515f19600387901b60f8161c191681555b50505050600190811b01905550565b85815260806020820152836080820152838560a08301375f60a085830101525f60a0601f19601f87011683010190508360408301528260608301529695505050505050565b5f60018201611f6057611f60611d90565b5060010190565b634e487b7160e01b5f52603260045260245ffd5b80820281158282048414176112b4576112b4611d90565b5f82611fac57634e487b7160e01b5f52601260045260245ffd5b500490565b808201808211156112b4576112b4611d90565b5f60408201848352604060208401528084518083526060850191506020860192505f5b8181101561200e5783516001600160a01b0316835260209384019390920191600101611fe7565b5090969550505050505056fea26469706673582212208f5400adb7d15df8bf0e706b44f05a37b448e07967e701d88e62e64a80a20c9e64736f6c634300081c0033",
  "linkReferences": {},
  "deployedLinkReferences": {},
  "immutableReferences": {},
  "inputSourceName": "project/contracts/Escrow.sol",
  "buildInfoId": "solc-0_8_28-db10d24332c2cbca02adb6fe13b56e638d8ee80e"
}